:020000040000FA
:10000000000320206D010000710100007301000059
:1000100000000000000000000000000000000000E0
:10002000000000000000000000000000750100005A
:1000300000000000000000007701000079010000CE
:100040007B0100007B0100007B0100007B010000C0
:100050007B0100007B0100007B0100007B010000B0
:10006000000000007B0100007B0100000000000098
:10007000000000007B0100007B010000050400007F
:100080007B0100007B0100007B0100007B01000080
:100090007B0100007B010000000000000000000068
:1000A0007B0100007B010000000000000000000058
:1000B0007B010000000000007B0100007B010000CC
:1000C00000F002F800F042F812A030C808382418F6
:1000D0002D18AC4201D100F039F80FCCA246AB4646
:1000E0000CA730CF2D1B083F3F197C427F1E544484
:1000F0002D090426F441641EAC4201D300F026F819
:100100000126334200D0FB1A3343984754465D46DC
:10011000DFE700000C0500001C05000000000000E7
:100120007047000000000000002300240025002686
:10013000103A01D378C1FBD8520700D330C100D5A3
:100140000B6070471FB51FBD10B510BD00F056F80D
:100150001146FFF7F7FF00F0C1F900F06EF803B4A5
:10016000FFF7F2FF03BC00F075F8000006480047F7
:10017000FEE7FEE7FEE7FEE7FEE7FEE70348044989
:10018000024A044B70470000C1000000000220201A
:1001900000032020000220207047704770471F2274
:1001A000030C02D10F2200041CD0030E01D1000267
:1001B000083A030F01D10001121F830F01D1800003
:1001C000921E002801DB4000521ED2055118021277
:1001D00051181922904004D3491C002801D1490824
:1001E000490008467047C10FC90700D040420122AC
:1001F00092071143D3E701218907D0E7754600F044
:1002000025F8AE46050069465346C008C00085463D
:1002100018B020B5FFF7B2FF60BCB6460026002735
:10022000C0C5C0C5C0C5C0C5C0C5C0C5C0C5C0C5A6
:10023000403D490849008D46704710B50446C04608
:10024000C0462046FFF78BFF10BD000000487047F6
:100250000000202001491820ABBEFEE72600020066
:100260007047811E091F00BFFCD27047B0B5112234
:10027000120283580124A34383508B780C881C43BB
:100280008B882343094C1C408358094D1D402B1972
:1002900083508B79CC791C43097A21437E23194002
:1002A000801842689A4351184160B0BD1867000039
:1002B000E798FDFF10B50122120383180C789C60AB
:1002C0004978815010BD000080B50246094802708F
:1002D000491FCAB2112A05D849B2074A515C417078
:1002E000022100E001216B224254491C00F03AF93E
:1002F00080BDC04660002020FC050000024882212D
:10030000016002494160704754804240820004000D
:100310000C48002101600320C1430B480246083A03
:1003200013680B40136001680122914301601102C0
:1003300003688B4303601103001F02680A430260D5
:100340007047C04608030B4008010B4010B5154C20
:1003500015492046FFF7AEFF14492046FFF786FFF8
:100360000320C103124802688A4302600169114AEE
:100370000A40911C016141690B220A4334218A43DE
:10038000426141680122114043689343591841601A
:100390009102094B1C680C431C6001681143016009
:1003A00010BDC046008010400E0600001006000080
:1003B000009110400000FFFF2890104080B500F031
:1003C00007F8FFF79BFFFFF7A3FFFFF7BFFF80BD15
:1003D00080B5074807494160074A5160074B59609B
:1003E00007490160116019601020FFF73AFF80BDD6
:1003F00000080A40030000B100280A4000881040AD
:100400000100002610B5064C2068C0B20B2804D1AC
:1004100004480068C0B200F039F80B20A06210BD9B
:100420002090104024911040B0B581B0002200927D
:100430000B490C4B4B608A6005230B60012808DBDD
:10044000094B8A6000938C68009DAC42FBD8401E2B
:10045000F7DC086801229043086001B0B0BDC046D7
:1004600010E000E0FFFFFF000083FF00FF210231EA
:10047000194A505C4000105A535C5B1C535453564D
:10048000002B00D470470023535470470121090208
:10049000114A535C5B00D052505C401C5054505683
:1004A000002800D4704700205054704710B5FF203A
:1004B000023009490B5C012212028C5CA34205D96F
:1004C000085C895C081A803080B210BD8A5C085CC8
:1004D000101A80B210BDC046F6002020FFF76EFF54
:1004E0000124E0031B4908601B4908607D26B00019
:1004F000FFF79AFF0A252846FFF796FF00F05CF801
:10050000F000FFF791FF0E212046FFF7DDFE2846A1
:10051000FFF78AFF00F050F8374D2878012817D1EF
:100520006878352814D133480078062810D1E87847
:1005300029790002401880B2FFF75DFE0749086084
:1005400007490860AA78002A02D0E20750400860F4
:10055000FEE7C04680E200E000E100E0F801202074
:100560007000202070B582B06B4600221A701A709D
:100570001B788B421BD20F4B07E09C61009C641CD4
:100580006D462C702C788C4211D26C462478045D18
:1005900001AD2A801D68ED07EFD0019D6D1C01AEF5
:1005A00035807D25AD013688AE42F3D9E6E702B04D
:1005B00070BDC0460891104070B582B001AD0026F4
:1005C0002E80FFF773FF0B4C20702E802888217837
:1005D00088420CD2084DFFF749FF01A90A88A854A8
:1005E0000198401C0880088821788842F3D302B023
:1005F00070BDC046F4002020740020202426272946
:10060000303132333435363738393A3B3C3D0400EB
:100610000000180000000030000000000000000092
:100620003006000000002020000300002801000028
:04000005000000C136
:00000001FF
