:020000040000FA
:10000000100320206D010000710100007301000049
:1000100000000000000000000000000000000000E0
:10002000000000000000000000000000750100005A
:1000300000000000000000007701000079010000CE
:100040007B0100007B0100007B0100007B010000C0
:100050007B0100007B0100007B0100007B010000B0
:10006000000000007B0100007B0100000000000098
:10007000000000007B0100007B010000450400003F
:100080007B0100007B0100007B0100007B01000080
:100090007B0100007B010000000000000000000068
:1000A0007B0100007B010000000000000000000058
:1000B0007B010000000000007B0100007B010000CC
:1000C00000F002F800F042F812A030C808382418F6
:1000D0002D18AC4201D100F039F80FCCA246AB4646
:1000E0000CA730CF2D1B083F3F197C427F1E544484
:1000F0002D090426F441641EAC4201D300F026F819
:100100000126334200D0FB1A3343984754465D46DC
:10011000DFE700002C0600003C06000000000000A5
:100120007047000000000000002300240025002686
:10013000103A01D378C1FBD8520700D330C100D5A3
:100140000B6070471FB51FBD10B510BD00F056F80D
:100150001146FFF7F7FF00F0E1F900F06EF803B485
:10016000FFF7F2FF03BC00F075F8000006480047F7
:10017000FEE7FEE7FEE7FEE7FEE7FEE70348044989
:10018000024A044B70470000C1000000100220200A
:1001900010032020100220207047704770471F2254
:1001A000030C02D10F2200041CD0030E01D1000267
:1001B000083A030F01D10001121F830F01D1800003
:1001C000921E002801DB4000521ED2055118021277
:1001D00051181922904004D3491C002801D1490824
:1001E000490008467047C10FC90700D040420122AC
:1001F00092071143D3E701218907D0E7754600F044
:1002000025F8AE46050069465346C008C00085463D
:1002100018B020B5FFF7B2FF60BCB6460026002735
:10022000C0C5C0C5C0C5C0C5C0C5C0C5C0C5C0C5A6
:10023000403D490849008D46704710B50446C04608
:10024000C0462046FFF78BFF10BD000000487047F6
:100250000000202001491820ABBEFEE72600020066
:100260007047811E091F00BFFCD27047B0B5112234
:10027000120283580124A34383508B780C881C43BB
:100280008B882343094C1C408358094D1D402B1972
:1002900083508B79CC791C43097A21437E23194002
:1002A000801842689A4351184160B0BD1867000039
:1002B000E798FDFF10B50122120383180C789C60AB
:1002C0004978815010BD000010B504460D480470F7
:1002D000FD2444708170110AC1700271437102994A
:1002E0000A0E82710A0CC2710A0A027241720399E3
:1002F00081720499C1726B2101730D2100F06CF9B8
:1003000010BDC0466000202080B50246094802703A
:10031000491FCAB2112A05D849B2074A515C417037
:10032000022100E001216B224254491C00F054F9E3
:1003300080BDC046700020202007000002488221B6
:1003400001600249416070475480424082000400CD
:100350000C48002101600320C1430B480246083AC3
:1003600013680B4013600168012291430160110280
:1003700003688B4303601103001F02680A43026095
:100380007047C04608030B4008010B4010B5154CE0
:1003900015492046FFF78EFF14492046FFF766FFF8
:1003A0000320C103124802688A4302600169114AAE
:1003B0000A40911C016141690B220A4334218A439E
:1003C00042614168012211404368934359184160DA
:1003D0009102094B1C680C431C60016811430160C9
:1003E00010BDC046008010403207000034070000F6
:1003F000009110400000FFFF2890104080B500F0F1
:1004000007F8FFF79BFFFFF7A3FFFFF7BFFF80BDD4
:1004100080B5074807494160074A5160074B59605A
:1004200007490160116019601020FFF71AFF80BDB5
:1004300000080A40030000B100280A40008810406C
:100440000100002610B5064C2068C0B20B2804D16C
:1004500004480068C0B200F039F80B20A06210BD5B
:100460002090104024911040B0B581B0002200923D
:100470000B490C4B4B608A6005230B60012808DB9D
:10048000094B8A6000938C68009DAC42FBD8401EEB
:10049000F7DC086801229043086001B0B0BDC04697
:1004A00010E000E0FFFFFF000083FF00FF210231AA
:1004B000194A505C4000105A535C5B1C535453560D
:1004C000002B00D4704700235354704701210902C8
:1004D000114A535C5B00D052505C401C5054505643
:1004E000002800D4704700205054704710B5FF20FA
:1004F000023009490B5C012212028C5CA34205D92F
:10050000085C895C081A803080B210BD8A5C085C87
:10051000101A80B210BDC0460A01202084B0FFF737
:100520006DFF0124E00327490860274908607D2604
:10053000B000FFF799FF00211920C0010090019140
:100540000291F20020460B46FFF7BEFE0A25284620
:10055000FFF78AFF00F06AF83001FFF785FF0F21EF
:100560002046FFF7D1FE2846FFF77EFF00F05EF839
:100570003E4D2878012823D16878362820D13A4882
:10058000007808281CD1E8780006297909040818A1
:10059000697909024018A9794018FFF72CFE0B4928
:1005A00008600B4900F064F86F21C90500F060F89D
:1005B00008490860AA78002A02D0E2075040086083
:1005C000FEE7C04680E200E000E100E08400202079
:1005D0000000B4438000202070B582B06B4600223A
:1005E0001A701A701B788B421BD20F4B07E09C616C
:1005F000009C641C6D462C702C788C4211D26C4689
:100600002478045D01AD2A801D68ED07EFD0019DBF
:100610006D1C01AE35807D25AD013688AE42F3D923
:10062000E6E702B070BDC0460891104070B582B0D8
:1006300001AD00262E80FFF759FF0B4C20702E8055
:100640002888217888420CD2084DFFF72FFF01A996
:100650000A88A8540198401C08800888217888429C
:10066000F3D302B070BDC0460801202088002020CE
:1006700070B5420064414B005C41120E39D01B0E34
:1006800038D0FF2A3CD0FF2B3AD0D2187F3A400214
:100690004902400A490A4518ED0106004E43000A86
:1006A000090A48430104731A4019190C4318990F99
:1006B00004D05B08012149075B1A521CD80904D3F6
:1006C000401CF50301D19D0607D0FF2A08D2D505AD
:1006D00006D0E4072043401970BD0125A843F4E784
:1006E000002A01DCE00770BD2402FF202043C00582
:1006F00070BD1B0EFF2A03D0FF2B01D0E00770BD99
:10070000FF2636064500B54206D84D00B54203D84F
:10071000D218FF2A00D0E7E7004870BD0000C07F74
:1007200024262729303132333435363738393A3BAD
:100730003C3D0400000018000000003000000000F4
:1007400050070000000020201003000028010000D6
:04000005000000C136
:00000001FF
