:020000040800F2
:10000000C0060020890100080F080008D505000877
:100010000B080008A7020008B32100080000000038
:100020000000000000000000000000009114000823
:100030003103000800000000410D0008D115000840
:10004000A3010008A3010008A3010008A301000800
:10005000A3010008A3010008A3010008A3010008F0
:10006000A3010008A3010008A3010008A3010008E0
:10007000A3010008A3010008A3010008A3010008D0
:10008000A3010008A3010008A3010008A3010008C0
:10009000A3010008A3010008A3010008A3010008B0
:1000A000A3010008E9180008A3010008A301000843
:1000B000151900089D190008A3010008A3010008F4
:1000C000A3010008A3010008A3010008A301000880
:1000D000A3010008CD1E0008A30100087D1F000831
:1000E000A3010008A3010008A301000800F002F822
:1000F00000F03AF80AA090E8000C82448344AAF188
:100100000107DA4501D100F02FF8AFF2090EBAE885
:100110000F0013F0010F18BFFB1A43F0010318473B
:10012000B0330000D0330000103A24BF78C878C143
:10013000FAD8520724BF30C830C144BF04680C60ED
:10014000704700000023002400250026103A28BF35
:1001500078C1FBD8520728BF30C148BF0B60704739
:100160001FB51FBD10B510BD00F063F81146FFF7B5
:10017000F7FF02F065F800F081F803B4FFF7F2FF33
:1001800003BC00F089F8000009488047094800478F
:10019000FEE7FEE7FEE7FEE7FEE7FEE7FEE7FEE737
:1001A000FEE7FEE704480549054A064B7047000094
:1001B000D5150008ED000008C0000020C006002092
:1001C000C0020020C002002010B5203AC0F00B8011
:1001D000B1E81850203AA0E81850B1E81850A0E84B
:1001E0001850BFF4F5AF5FEA027C24BFB1E81850A5
:1001F000A0E8185044BF18C918C0BDE810405FEA15
:10020000827C24BF51F8043B40F8043B08BF704790
:10021000D20728BF31F8023B48BF11F8012B28BF95
:1002200020F8023B48BF00F8012B70477047704729
:100230007047754600F02CF8AE46050069465346F7
:1002400020F00700854618B020B5FFF7ABFFBDE8EA
:1002500020404FF000064FF000074FF000084FF02D
:10026000000B21F00701AC46ACE8C009ACE8C009BE
:10027000ACE8C009ACE8C0098D46704710B504462B
:10028000AFF300802046BDE81040FFF776BF0000C6
:10029000004870475C00002001491820ABBEFEE713
:1002A00026000200704700BFFEE7000008B50121EC
:1002B0000C2000F057FD10208DF803004FF4F07073
:1002C000ADF8000003208DF802006946164800F0E2
:1002D0006AF80120ADF800006946144800F063F8A0
:1002E0004FF44070ADF8000018208DF80300694607
:1002F0000E4800F058F801F08FFB20210A4800F06A
:10030000E8F84021084800F0E2F88021064800F0B3
:10031000E0F80121054800F0DAF84FF48071024856
:1003200000F0D7F808BD000000080140000C0140B3
:100330007047000070B504460C4801F01FF9002515
:1003400008E000BF4FF0E020006900F48030002892
:10035000F8D06D1CA542F4D34FF0E020006920F0E6
:1003600001004FF0E021086170BD0000401901005C
:1003700070B50446482001F001F9002508E000BFEF
:100380004FF0E020006900F480300028F8D06D1CA8
:10039000A542F4D34FF0E020006920F001004FF0B7
:1003A000E021086170BD2DE9F041024600250026DC
:1003B000002000230024002791F803C00CF00F0553
:1003C00091F803C00CF0100CBCF1000F03D091F8B1
:1003D00002C04CEA050591F800C0BCF1000F31D015
:1003E000146800202BE04FF0010C0CFA00F3B1F878
:1003F00000C00CEA03069E4220D183004FF00F0C90
:100400000CFA03F7BC4305FA03FC4CEA040491F828
:1004100003C0BCF1280F06D14FF0010C0CFA00FC10
:10042000C2F814C00AE091F803C0BCF1480F05D12E
:100430004FF0010C0CFA00FCC2F810C0401C082858
:10044000D1D31460B1F800C0BCF1FF0F34DD5468A3
:1004500000202EE000F1080C4FF0010808FA0CF320
:10046000B1F800C00CEA03069E4221D183004FF090
:100470000F0C0CFA03F7BC4305FA03FC4CEA040426
:1004800091F803C0BCF1280F05D100F1080C08FA5F
:100490000CF8C2F8148091F803C0BCF1480F07D1E2
:1004A00000F1080C4FF0010808FA0CF8C2F81080AF
:1004B000401C0828CED35460BDE8F08102460020DD
:1004C00093680B400BB1012000E0002070474161B0
:1004D000704701617047000008B50121082000F055
:1004E00041FC10208DF803002020ADF80000012011
:1004F0008DF8020069460A48FFF755FF2021084899
:10050000FFF7E5FF04208DF803000220ADF800009E
:1005100069460348FFF747FF00F004F808BD0000F4
:10052000000C014000B587B00121022000F00AFC58
:100530004FF6FF70ADF814004720ADF81000002012
:10054000ADF81600ADF812008DF8180004A918488F
:1005500001F016FC0C20ADF804000020ADF80600F8
:100560000120ADF808000020ADF80A00ADF80C003D
:1005700001A90F4801F0BEFA11210D4801F092FACD
:10058000012211210A4801F00BFB0121084801F06A
:100590008FFA1D208DF8000001208DF801008DF8E4
:1005A00002008DF80300684600F042F907B000BD74
:1005B0000004004010B520210548FFF78AFF0F20F6
:1005C000FFF7D6FE20210248FFF781FF10BD000093
:1005D000000C014000BFFEE708B50121082000F033
:1005E000C1FB0121480500F0ADFB1C208DF8030084
:1005F000C020ADF8000003208DF8020069460248D3
:10060000FFF7D1FE08BD0000000C014010B5FFF758
:10061000E3FF00F001F810BD1FB54FF48060ADF8A6
:100620000A000001ADF80C000A4800904BF6FF707C
:10063000ADF806000020ADF804000A20ADF808006F
:100640006946054800F060F80121034800F01BF8F6
:100650001FBD0000801A06000054004070B502461D
:100660000024002500230020958A138B1B0445EAF3
:10067000030626F07F4404EA01068E4201D10120E0
:1006800000E0002070BD21B1028842F0010202802A
:1006900004E002884FF6FE731A400280704721B1D1
:1006A000028842F48072028004E002884FF6FF6301
:1006B0001A400280704721B1028842F40072028021
:1006C00004E002884FF6FF531A40028070470CB5D1
:1006D0000246002000230193009300920B0F019328
:1006E00021F07F41019B1BB1009B1433009303E079
:1006F000090C009B18330093009B1B680B400BB147
:10070000012000E000200CBD2DE9F04385B0044637
:100710000D460026B1460427DFF8CC80A6884FF6A8
:10072000C0700640684600F02DFBDDF808802F48B9
:10073000B8FBF0F01FFA80F946EA0906A680208887
:100740004FF6FE710840208000262949286888421B
:100750000CD828684000B8FBF0F087B2042F00DA0C
:1007600004273E4309F10100208427E0E8884BF686
:10077000FF71884206D1286800EB4000B8FBF0F01A
:1007800087B209E0286800EBC00101EB0010B8FB5C
:10079000F0F087B247F48047C7F30B0008B947F081
:1007A000010747F4004006434FF4967009FB00F040
:1007B0004FF47A7190FBF1F0401C2084A6832088CE
:1007C00040F00100208026884FF6F5300640A888CA
:1007D0006989084306432680A8892989084320811E
:1007E00005B0BDE8F083000000127A0040420F001F
:1007F000A086010012B141F0010102E04FF6FE7344
:100800001940018270470182704700BFFEE77047C0
:1008100008B527208DF8000000208DF801008DF824
:10082000020001208DF80300684600F001F808BDC1
:1008300070B5002100230F22C47804B3154C24683E
:1008400004F4E064C4F5E064210AC1F10403CA4081
:10085000447804FA03F184781440214309010E4CD2
:100860000678A155047804F01F050124AC400578F2
:100870006D11AD0005F1E025C5F8004109E00478EF
:1008800004F01F050124AC40044D0678761145F8AC
:10089000264070BD0CED00E000E400E080E100E0E7
:1008A00002490143024A1160704700000000FA0546
:1008B0000CED00E010B588B0C820FFF73BFD20220A
:1008C00008A16846FFF780FC002405E01DF804003D
:1008D00000F018F8601CC4B21E2CF7D300F056F8D4
:1008E00008B010BDAE00104081CFA1C8A6A83FD36C
:1008F00000D580D9F1DA12DB4020028D14A4A6AF16
:10090000AFAF000010B5044600BF4FF400311C48E3
:10091000FFF7DDFE0028F8D101211948FFF7BFFEDF
:1009200000BF18491648FFF799FE0028F9D00022A9
:1009300078211348FFF75EFF00BF13491048FFF707
:100940008DFE0028F9D000210D48FFF75CFF00BFA5
:100950000D49891C0A48FFF781FE0028F8D021467E
:100960000748FFF750FF00BF0749891C0448FFF7FD
:1009700075FE0028F8D001210148FFF79CFE10BD4C
:1009800000540040010003008200070070B50024FD
:1009900014E044F0B000FFF7B5FF0020FFF7B2FF0E
:1009A0001020FFF7AFFF002504E0002000F00AF858
:1009B000681CC5B2802DF8DB601CC4B2082CE8DBD3
:1009C00070BD000010B5044600BF4FF400311C4854
:1009D000FFF77DFE0028F8D101211948FFF75FFEDF
:1009E00000BF18491648FFF739FE0028F9D0002249
:1009F00078211348FFF7FEFE00BF13491048FFF7A8
:100A00002DFE0028F9D040210D48FFF7FCFE00BF65
:100A10000D49891C0A48FFF721FE0028F8D021461D
:100A20000748FFF7F0FE00BF0749891C0448FFF79D
:100A300015FE0028F8D001210148FFF73CFE10BD4B
:100A40000054004001000300820007002DE9F04738
:100A500006460C4617469846DDF8209000251DE016
:100A600045F0B0013144C8B2FFF74CFF102101EB53
:100A70001410FFF747FF04F00F00FFF743FF4FF09C
:100A8000000A07E019F8010BFFF79CFF0AF10100CB
:100A900000F0FF0AC245F5DB681CC5B2BD42DFDBD2
:100AA000BDE8F0872DE9F0411A4908681A4909683C
:100AB00002F0F0F9174908610A461169906902F0DD
:100AC00015F8144988610A465169106902F0E2F983
:100AD000064610488168304602F0DEF804460D4AAA
:100AE0009169D06802F0D8F806460A4A1169506840
:100AF00002F0D2F80746314601F0F8FF05462146DC
:100B000001F0F4FF0349C861084600694861BDE887
:100B1000F08100003C0000202000002010B50020E3
:100B200009490860094800F0C3F9074948600848C6
:100B300000F0BEF90449C860064800F0B9F902495E
:100B400088600020486110BD3C00002000EC0008D7
:100B500000F0000800F4000870B56F48C1696F48E4
:100B600001F0C4FF04466C48C1696C4802F092F978
:100B700005466B49204602F05BF900D2684C002123
:100B8000204602F055F800D200246549284602F0BC
:100B90004FF900D2624D0021284602F049F800D2F8
:100BA0000025204602F010F886B231465D4801F07B
:100BB000B3F8284602F008F886B23146594801F0E9
:100BC000ADF859480078012804D100205749087031
:100BD0005549087055480078172804DA53480078BA
:100BE000401C524908704FF080415148006802F0A3
:100BF0001FF903D201204F49087009E04FF040412E
:100C00004B48006802F014F802D2FF2049490870EE
:100C1000494800780A287DD1002047490870454896
:100C20000078002807DB41480078142838DA41486A
:100C30000078002834DD00214FF0804000F038FFBC
:100C40000021384801F068F84FF47A61354801F026
:100C500065F824E000F000F93848007870B93748AA
:100C6000407858B93548807840B93448C07828B9B8
:100C70003248007910B93148407908B1012000E0CC
:100C8000002001280BD10021264801F047F8282038
:100C9000C10688840121C00600F00AFF70BDD9E7B3
:100CA00024480078002835DD00214FF0804000F016
:100CB000FFFE4FF47A611B4801F02EF8002119481D
:100CC00001F02CF825E000F0C7F81C48007870B956
:100CD0001A48407858B91948807840B91748C07800
:100CE00028B91648007910B91448407908B1012094
:100CF00000E0002001280CD100210A4801F00CF886
:100D00002820C10688840121C00600F0D1FEC5E775
:100D100000E0D8E700BFC1E73C00002000803B4571
:100D20000000E145000800402C0000202D000020BC
:100D3000200000202E0000201400002016000020BB
:100D40007047000029B1064AD2690243044BDA61B8
:100D500004E0034AD2698243014BDA617047000024
:100D60000010024029B1064A92690243044B9A617D
:100D700004E0034A92698243014B9A617047000084
:100D80000010024030B500210022002400232D4D28
:100D90006D6805F00C0121B1042905D0082923D183
:100DA00005E0294D056022E0274D05601FE0254D37
:100DB0006D6805F47012234D6D6805F480340225CA
:100DC00005EB92421CB9214D554305600BE01D4DCA
:100DD0006D6805F400351DB11C4D5543056002E0FA
:100DE000194D5543056002E0174D056000BF00BF77
:100DF000144D6D6805F0F0010909154D6B5C05682F
:100E0000DD4045600F4D6D6805F4E061090A104D45
:100E10006B5C4568DD4085600A4D6D6805F4605186
:100E2000C90A0B4D6B5C4568DD40C560054D6D68BA
:100E300005F44041890B074D6B5CC568B5FBF3F5C4
:100E4000056130BD0010024000127A0000093D002B
:100E5000000000201000002010B501211248FFF70B
:100E60002DFB1249087002210F48FFF727FB0F499D
:100E7000487004210C48FFF721FB0C4988700821B9
:100E80000948FFF71BFB0949C87010210648FFF706
:100E900015FB064908714FF480510348FFF70EFB1C
:100EA0000249487110BD00000008014016000020F2
:100EB00010B50446206801F0A7FE10BD10B5012151
:100EC000FE48FFF7FBFAFE4908700221FB48FFF7D6
:100ED000F5FAFB4948700421F848FFF7EFFAF849A2
:100EE00088700821F548FFF7E9FAF549C870102124
:100EF000F248FFF7E3FAF24908714FF48051EF48E6
:100F0000FFF7DCFAEE49487108460078A0B90846B8
:100F1000407888B90846807801280DD10846C07805
:100F2000012809D10846007930B90846407918B936
:100F30000020E44908609EE2E1480078012817D1CA
:100F4000DF484078012813D1DD48807801280FD18F
:100F5000DB48C07801280BD1D9480079012807D196
:100F6000D7484079012803D10020D649086082E2A1
:100F7000D3480078A0B9D248407888B9D048807862
:100F800001280DD1CE48C07850B9CD48007938B984
:100F9000CB48407920B94FF07E50CA4908606AE2D8
:100FA000C7480078A8B9C6484078012811D1C4487C
:100FB000807801280DD1C248C07850B9C048007966
:100FC00038B9BF48407920B94FF08040BD4908602A
:100FD00051E2BB480078B0B9B9484078012812D135
:100FE000B748807801280ED1B548C07801280AD1C9
:100FF000B348007938B9B248407920B94FF07E50F3
:10100000B049086037E2AE48007898B9AC484078FB
:1010100001280FD1AA48807860B9A948C07848B99A
:10102000A748007930B9A648407918B9A648A5491B
:10103000086020E2A2480078012813D1A048407837
:1010400001280FD19E48807860B99D48C07848B982
:101050009B48007930B99A48407918B99B4899491A
:10106000086008E296480078012814D19448407836
:10107000012810D19248807801280CD19048C0787E
:1010800048B98F48007930B98D48407918B99048EF
:101090008C490860EFE18A480078012815D188481A
:1010A0004078012811D18648807801280DD18448E4
:1010B000C078012809D18248007930B98048407948
:1010C00018B983487F490860D5E17D480078012838
:1010D00012D17B48407878B97948807860B97848EF
:1010E000C07848B97648007930B97548407918B960
:1010F000764874490860BEE171480078012816D12D
:101100006F48407898B96E48807801280FD16C48B4
:10111000C07860B96A48007948B96948407930B9FF
:101120006C486849086001206B490870A3E1644875
:101130000078012817D162484078A0B960488078CB
:10114000012810D15E48C07801280CD15C48007994
:1011500048B95B48407930B95E485A490860012077
:101160005D49087087E156480078012815D1544838
:101170004078012811D15248807801280DD150487B
:10118000C078012809D14E48007930B94C484079DF
:1011900018B94F484B4908606DE14948007801286B
:1011A00016D147484078012812D145488078012857
:1011B0000ED14348C07801280AD14148007901285E
:1011C00006D13F48407918B942483E49086052E18B
:1011D0003B48007898B93A48407880B938488078D8
:1011E00068B93748C078012809D13548007930B945
:1011F0003348407918B93948324908603BE13048F2
:101200000078A8B92E48407890B92D48807878B9F0
:101210002B48C07801280BD129480079012807D133
:101220002748407920B94FF040402649086022E124
:1012300023480078B0B92248407898B9204880788F
:1012400001280FD11E48C07801280BD11C48007915
:10125000012807D11A48407920B94FF04040194978
:10126000086008E11648007898B91548407880B9B8
:101270001348807868B91248C07850B9104800798E
:10128000012806D10E48407918B915480D49086063
:10129000F1E00B48007848BB0948407830BB08486B
:1012A000807818BB0648C07800BB05480079012843
:1012B0001CD103484079012818D113E000080140EF
:1012C0001600002020000020000040400000A04048
:1012D0000000C0400000E0402C000020000080BF63
:1012E000000040C0644865490860C4E06448007874
:1012F000A8B96348407890B96148807878B9604867
:10130000C07801280BD15E480079012807D15C48DC
:101310004079012803D1584858490860ABE0584843
:10132000007898B95648407880B95548807868B9AF
:101330005348C07850B95248007938B9504840797C
:10134000012803D14C484D49086094E04C4800788E
:10135000B0B94B48407898B94948807801280FD1F6
:101360004748C07801280BD145480079012807D1AA
:1013700043484079012803D14248404908607AE057
:101380003F480078A0B93E48407888B93C4880780A
:1013900070B93B48C07801280AD13948007938B97A
:1013A00037484079012803D137483449086062E062
:1013B00033480078A8B93248407890B930488078EE
:1013C00001280ED12E48C07801280AD12C48007976
:1013D00038B92B484079012803D12B4827490860A8
:1013E00049E027480078B0B92548407898B92448A2
:1013F000807801280FD12248C07801280BD12048DD
:101400000079012807D11E484079012803D11E48E0
:101410001A4908602FE01A480078B8B9184840788F
:10142000012813D11648807801280FD11448C078BC
:1014300001280BD112480079012807D110484079C2
:10144000012803D110480D49086014E00C480078C9
:1014500088B90B48407870B90948807858B908486D
:10146000C07840B90648007928B90548407910B9D4
:101470000A200649087010BD0000A0C0200000200E
:10148000160000200000C0C00000E0C014000020D2
:10149000704710B500F002F810BD00000CB5002038
:1014A000019000903348006840F480303149086072
:1014B00000BF3048006800F4003000900198401CE4
:1014C0000190009818B90198B0F5A06FF1D12948A2
:1014D000006800F4003010B10120009001E000200D
:1014E00000900098012843D12348006840F0100084
:1014F000214908600846006820F00300086008469B
:10150000006840F0020008601A48406819494860C5
:101510000846406848600846406840F4806048607B
:101520000846406820F47C1048600846406840F453
:10153000E81048600846006840F08070086000BF0E
:101540000C48006800F000700028F9D00948406895
:1015500020F00300074948600846406840F0020058
:10156000486000BF0348406800F00C000828F9D12B
:101570000CBD0000001002400020024030B50146C2
:10158000B1F1807F01D3012030BD21F07F40401EAA
:101590004FF0E022506150170F22002807DA13079E
:1015A0001D0E094B00F00F04241F1D5503E0130707
:1015B0001C0E064B1C5400BF00204FF0E02290612F
:1015C000072010610020DFE718ED00E000E400E0F4
:1015D0007047000010B51348006840F00100114941
:1015E000086008464068104908400E4948600846AF
:1015F00000680E4908400B4908600846006820F45E
:10160000802008600846406820F4FE0048604FF4DF
:101610001F008860FFF73DFF4FF00060044908603D
:1016200010BD0000001002400000FFF8FFFFF6FEB2
:1016300008ED00E0F0B50C46154600220021068CAE
:101640004FF6FE773E400684028B018C4FF60C76F7
:1016500032407E1C06EA03162E433243104EB0423F
:101660000ED0104EB0420BD0B0F1804F08D00E4ECD
:10167000B04205D00D4EB04202D00D4EB04206D160
:101680004FF6FD76314044F00106314305E04FF658
:10169000F576314044F00106314302830184F0BD08
:1016A000002C0140003401400004004000080040CC
:1016B000000C0040F0B50C46154600220021002623
:1016C000078C4FF6EF7C07EA0C070784028B018C2E
:1016D0004FF6FF7707EA041640F6FF473A404FF609
:1016E000FF7707EA03373A434FF6FF7707EA052704
:1016F0003A43114FB8420ED0104FB8420BD0B0F160
:10170000804F08D00E4FB84205D00E4FB84202D0DD
:101710000D4FB84206D14FF6DF77394046F010073B
:10172000394305E04FF65F77394044F010073943FD
:1017300002830184F0BD0000002C01400034014010
:101740000004004000080040000C0040F0B50C46CA
:101750001546002200210026078C4FF6FF6C07EA91
:101760000C070784828B018C4FF6FF7707EA04266B
:101770004FF60C773A404FF6FF7707EA03172F43EF
:101780003A43114FB8420ED0104FB8420BD0B0F1CF
:10179000804F08D00E4FB84205D00E4FB84202D04D
:1017A0000D4FB84206D14FF6FF57394046F48077C7
:1017B000394305E04FF2FF57394044F4807739430D
:1017C00082830184F0BD0000002C01400034014000
:1017D0000004004000080040000C0040F0B50C463A
:1017E0001546002200210026078C4EF6FF7C07EAF2
:1017F0000C070784828B018C4FF6FF7707EA0436CB
:1018000040F6FF473A404FF6FF7707EA05273A438D
:101810004FF6FF7707EA03373A43114FB8420ED02D
:10182000104FB8420BD0B0F1804F08D00E4FB842E5
:1018300005D00E4FB84202D00D4FB84206D14DF63A
:10184000FF77394046F48057394305E047F6FF57A4
:10185000394044F48057394382830184F0BD00004D
:10186000002C01400034014000040040000800400A
:10187000000C00401FB50121C802FFF773FA4FF4B6
:101880001670ADF8080041F61F40ADF804000020C6
:10189000ADF80A00ADF806008DF80C0001A911485A
:1018A00000F06EFA01210F4800F0FCF80122114609
:1018B0000C4800F075F919208DF8000002208DF811
:1018C000010001208DF802008DF803006846FEF744
:1018D000AFFF0021034800F0EBF80020014924315C
:1018E00008801FBD002C014010B50121074800F001
:1018F000EFF850B10120064908700021034800F0BC
:10190000D7F80121014800F0D0F810BD002C0140AB
:101910001F00002010B50121880700F0D9F830B170
:101920000120034908700121800700F0BEF810BDB6
:10193000150000201FB501210846FFF703FA3C20DF
:10194000ADF8080041F61F40ADF804000020ADF8E6
:101950000A00ADF8060001A94FF0804000F010FA2F
:1019600001221146900700F01BF91C208DF80000A1
:1019700002208DF8010000208DF8020001208DF872
:1019800003006846FEF754FF00214FF0804000F04E
:101990008FF800204FF0804188841FBD10B50121D1
:1019A0001B4800F095F840B11A488088401C19493E
:1019B00088800121164800F078F81021144800F0C2
:1019C00087F820B31348407878B90021104800F018
:1019D000A8F900200F498880488002210C4800F0B7
:1019E00081F901200B4948700DE0094800F06CF8BE
:1019F000084948800021064800F074F90020054994
:101A00004870012008701021014800F04EF810BD08
:101A1000000400403400002000B587B001210420FC
:101A2000FFF790F94FF4E150ADF814000020ADF845
:101A30001000ADF81600ADF8120004A9124800F02D
:101A40009FF96020ADF800000120ADF802000020F1
:101A5000ADF8080069460C4800F006F908210A486C
:101A600000F04DF96946084800F0A4F8082106483E
:101A700000F0F0F80121044800F008F801210248C4
:101A800000F016F807B000BD0008004021B1028840
:101A900042F08002028004E002884FF67F731A4011
:101AA00002807047CA4302827047CA43028270476D
:101AB00021B1028842F00102028004E002884FF660
:101AC000FE731A40028070470146B1F8400070472B
:101AD00030B50246002000230024158A05EA0103E0
:101AE000958905EA010413B10CB1012000E0002042
:101AF00030BD000070B505460C46244885420ED026
:101B0000234885420BD0B5F1804F08D0214885424B
:101B100005D02148854202D02048854200D100E00E
:101B200000BF208850B92389A28861882846FFF722
:101B300081FDE188284600F0F6F825E02088042899
:101B40000AD12389A28861882846FFF7B3FDE1887E
:101B5000284600F0F1F817E0208808280AD12389E8
:101B6000A28861882846FFF7F1FDE188284600F049
:101B7000F0F809E02389A28861882846FFF72EFE45
:101B8000E188284600F0EEF870BD0000002C01400E
:101B9000003401400004004000080040000C0040F8
:101BA0001AB183890B43838102E083898B4383814C
:101BB0007047000070B5002400220023058C4FF60A
:101BC000FF6635400584028C8388848B4FF68F75C1
:101BD0002C404FF6FC752C400D882C434FF6FF55DA
:101BE0002A400D894FF6FF7606EA05252A434D88DF
:101BF00006EA05252A43154DA84202D0144DA842F5
:101C00001DD14FF2FF752A404D894FF6FF7606EA47
:101C100005252A434FF6FF352A408D8806EA05251B
:101C20002A434EF6FF752B404DF6FF752B408D89EC
:101C300006EA05152B43CD8906EA05152B4383805B
:101C40008483CD888587028470BD0000002C01400C
:101C5000003401400A460021818B4FF6F77319408A
:101C6000114381837047000070B5002200230024D7
:101C7000058C4EF6FF7635400584038C8488828B74
:101C800048F6FF752A404FF6FF452A400D884FF66B
:101C9000FF7606EA05252A434DF6FF752B400D8990
:101CA00006EA05352B434D8806EA05352B430B4DD7
:101CB000A84202D00A4DA84208D14BF6FF752C402D
:101CC0008D894FF6FF7606EA85152C438480828342
:101CD000CD88A0F84050038470BD0000002C014066
:101CE000003401400A460021018C4DF6FF73194073
:101CF0004FF6FF7303EA02331943018470470A4623
:101D00000021818B4FF2FF7319404FF6FF7303EAF6
:101D1000022319438183704781877047A0F84010E0
:101D2000704781847047028B4FF6F3731A40028329
:101D3000028B0A4302837047028B4FF2FF331A4033
:101D40000283028B4FF6FF7303EA01231A430283D7
:101D50007047828B4FF6F3731A408283828B0A435B
:101D600082837047828B4FF2FF331A408283828BCB
:101D70004FF6FF7303EA01231A4382837047000082
:101D8000002202881D4B98420ED01D4B98420BD06A
:101D9000B0F1804F08D01B4B984205D01A4B9842A7
:101DA00002D01A4B984204D14FF68F731A404B88D9
:101DB0001A43174B984207D0164B984204D04FF65F
:101DC000FF431A40CB881A4302808B8883850B8897
:101DD00003850A4B98420BD0094B984208D00E4B12
:101DE000984205D00D4B984202D00D4B984201D13C
:101DF0000B7A03860123838270470000002C014088
:101E0000003401400004004000080040000C004085
:101E10000010004000140040004001400044014018
:101E20000048014000B587B001210420FEF79AFF69
:101E300001218803FEF796FF18208DF817004FF454
:101E40000070ADF8140003208DF8160005A91D4898
:101E5000FEF7A9FA04208DF817000002ADF814006F
:101E600005A91848FEF79FFA4FF4E13001900020D1
:101E7000ADF810000C20ADF80E000020ADF80C00FD
:101E8000ADF80A00ADF8080001A90F4800F020F9EC
:101E900025208DF8180000208DF819008DF81A0003
:101EA00001208DF81B0006A8FEF7C2FC012240F2BB
:101EB0002551054800F0E7F80121034800F0ADF88E
:101EC00007B000BD000801400038014010B540F2E5
:101ED0002551054800F0ADF820B140F225510248E7
:101EE00000F08CF810BD00000038014000B585B04E
:101EF00001210820FEF736FF01218804FEF722FFAA
:101F000018208DF813004FF48060ADF81000032006
:101F10008DF8120004A91748FEF745FA04208DF841
:101F200013004002ADF8100004A91248FEF73BFA76
:101F30004FF4165000900020ADF80C000C20ADF8C6
:101F40000A000020ADF80800ADF80600ADF8040066
:101F50006946094800F0BCF8FEF75AFC012240F23D
:101F60002551054800F08FF80121034800F055F88D
:101F700005B000BD000C01400048004010B540F223
:101F800025511B4800F055F888B3194800F00CF9AA
:101F9000C1B21848184A127881540246164B1B7871
:101FA000D05CC21700EB12721211A0EB0212114B9F
:101FB000114C2478195DCB1701EB13731B1103EB44
:101FC000830302EB43020B4B0B4C24781A550A484F
:101FD0000078401C0849087008460078012801DD97
:101FE0000020087040F22551014800F007F810BDAC
:101FF000004800401C0000201E00002010B50022F8
:10200000002340F66A14A14200D100BF0A12012445
:102010009440A3B2DC43048010BD21B1828942F414
:102020000052828104E082894DF6FF731A4082815A
:10203000704770B50246002400230025002040F6BA
:102040006A16B14200D100BFC1F3421501F01F036F
:10205000012606FA03F3012D02D19689334006E0EA
:10206000022D02D1168A334001E0968A33400C12C9
:10207000012606FA04F41688344013B10CB101208D
:1020800000E0002070BDF0B50346002400260025C6
:10209000002040F66A17B94200D100BF1846C1F3CC
:1020A000421401F01F06012707FA06F5012C01D1A1
:1020B0000C3004E0022C01D1103000E014301AB1D1
:1020C00007682F43076002E00768AF430760F0BD71
:1020D0002DE9F04786B005460E460024A24600BF13
:1020E000A1460027B08900B100BF2F462C8A4CF6CC
:1020F000FF700440F08804432C82AC894EF6F31044
:102100000440B08831890843718908430443AC8195
:10211000AC8A4FF6FF400440B0890443AC8201A86A
:10212000FEF730FE1F48874202D1DDF810A001E023
:10213000DDF80CA0A88900F4004040B10AEBCA0009
:1021400000EB0A1031684900B0FBF1F807E00AEB38
:10215000CA0000EB0A1031688900B0FBF1F8642076
:10216000B8FBF0F004012009642101FB1089A88963
:1021700000F4004040B1322000EBC900B0FBF1F0A8
:1021800000F00700044308E0322000EB091064214E
:10219000B0FBF1F000F00F0004432C8106B0BDE865
:1021A000F08700000038014001468888C0F308002D
:1021B000704700BFFEE7000010B520210C48FEF775
:1021C00086F940210A48FEF784F980210848FEF785
:1021D0007EF901210748FEF77CF94FF47A61064841
:1021E000FFF79AFD4FF47A610348FFF797FD10BDA2
:1021F00000080140000C01400008004010B52021FB
:102200000C48FEF766F940210A48FEF760F9802184
:102210000848FEF75EF901210748FEF758F900214A
:102220000648FFF779FD4FF47A610448FFF776FD21
:1022300010BD000000080140000C014000080040F3
:1022400008B54FF4A060FEF72BFBFFF74FFEFFF73A
:10225000E9FDFFF70FFBFEF7D9F9FEF72BFBFEF7C1
:102260005DFC00F039FAE1481023022200210090C1
:102270000846FEF7EBFBDD4820301023022219460A
:1022800000900020FEF7E2FBFEF726F9FFF752FB75
:10229000FEF70CF80021D648FFF73EFD0021D44898
:1022A000FFF73CFD00214FF08040FFF701FC9CE16F
:1022B000FEF76CFBABE0CF481023022220210090F8
:1022C0001046FEF7C3FBCB482030102302223021FA
:1022D00000901046FEF7BAFBC64840301023022299
:1022E000402100901046FEF7B1FBC2486030102339
:1022F0000222502100901046FEF7A8FB0021BC48A6
:10230000FFF70AFD0021BA48FFF708FD00214FF052
:102310008040FFF7CDFBB8480078062800D17BE06D
:10232000B5484078012813D100F086F9B34810234E
:102330000222302100900420FEF788FBAF482030B5
:1023400010230222402100900420FEF77FFB5EE074
:10235000A9484078022813D1FFF750FFA84810235E
:102360000222302100900420FEF770FBA4482030A8
:1023700010230222402100900420FEF767FB46E074
:102380009D484078032813D100F078F99D48102328
:102390000222302100900420FEF758FB994820309B
:1023A00010230222402100900420FEF74FFB2EE074
:1023B00091484078042813D1FFF7FEFE914810237E
:1023C0000222302100900420FEF740FB8D4820308F
:1023D00010230222402100900420FEF737FB16E074
:1023E00085484078062812DD00F06AF986481023F7
:1023F0000222302100900420FEF728FB8248203082
:1024000010230222402100900420FEF71FFB7A488F
:1024100000780628FFF64FAF00BFFEF7B7FA01219C
:102420008807FFF745FB7148102302220021009026
:102430000846FEF70BFB6D48203010230222194698
:1024400000900020FEF702FB01217048FFF730FBEF
:1024500020216F48FEF73DF840216D48FEF737F820
:1024600080216B48FEF735F801216A48FEF72FF806
:1024700057E0FEF723FD00240EE06748005D674942
:1024800001EB00100090E006010E08230222104626
:10249000FEF7DCFA601CC4B2062CEEDB6048007864
:1024A000012806D1FEF7FEFAFEF756FB00205C4934
:1024B00008705C480078012804D100205949087050
:1024C000FEF778F85848007801282AD156494988FB
:1024D000491C554A928801EB024000F09BFA0646DF
:1024E0000022524B00F03EF9044600F009F9504931
:1024F000086001214548FFF7DBFA002043492431F9
:1025000008804B4908684B4900F092FB06D209202D
:102510003949087000204449087006E0002042490B
:102520000870354800780628A3D000BF58E0002185
:102530004FF08040FFF7BCFA4FF47A612C48FFF768
:10254000EBFB4FF4FA612A48FFF7E8FB4FF4FA700F
:10255000FDF7F0FE4FF4FA612548FFF7DDFB4FF47D
:102560007A612348FFF7DAFB40F28A20FDF7E2FEAA
:1025700040F698011E48FFF7CFFB40F6C4111C48F7
:10258000FFF7CCFB23E0FEF767FC2348007870B927
:102590002148407858B92048807840B91E48C07812
:1025A00028B91D48007910B91B48407908B10120AD
:1025B00000E00020012800D10AE040F698010C4814
:1025C000FFF7AAFB40F6C4110948FFF7A7FBDAE7BB
:1025D00000BF06200849087001201149087003E077
:1025E000054800780928A2D000BF61E61E30000827
:1025F000000800400E3300081C0000208E33000845
:102600000E3400084E340008CE330008002C014080
:1026100000080140000C0140160000207E2F000839
:10262000150000201F0000203400002000004D4055
:10263000280000200000C84110B520210C48FDF7FB
:1026400048FF40210A48FDF742FF80210848FDF776
:1026500040FF01210748FDF73AFF4FF47A61064831
:10266000FFF75AFB4FF47A610348FFF757FB10BDA1
:1026700000080140000C01400008004010B5202176
:102680000C48FDF726FF40210A48FDF720FF802176
:102690000848FDF71EFF01210748FDF718FF4FF41A
:1026A0007A610648FFF738FB00210448FFF736FB44
:1026B00010BD000000080140000C0140000800406F
:1026C00010B500210348FFF727FB00210148FFF761
:1026D00025FB10BD0008004008B501210420FEF7CD
:1026E00041FB04208DF8030041F21F00ADF800000B
:1026F00069460248FDF757FE08BD0000000801408A
:1027000021F00042A2F16052B2F5801F01F00043B7
:1027100028BFD2F17F6C0BD95FEA001C43EAC202EA
:1027200042EB507018BF704728BF20F0010070477F
:10273000B2F5801FBCBF184670474FEA410C1CF52C
:10274000001F02D2084600F06EBB70B500F079F9A8
:1027500000000089FFF7F6BF4FF00040A0F58000B1
:10276000704700002DE9C04130B4DFF8A0C23CEA58
:10277000111418BF3CEA131400F0EC8081EA030541
:102780001CEA111444EAD57418BF1CEA131500F0B2
:10279000C780A4EB05044FF0004545EAC12145EA96
:1027A000C32341EA505143EA525304F17F749942E2
:1027B00004F500344FEAC0204FEAC22208BF90421D
:1027C00000F09C804FEA13650FF24016765D4FEAE9
:1027D000134506FB05F7C7F1807706FB07F74FEABD
:1027E000D737A7FB03687642C8F58038A7FB06CE2B
:1027F00038BFA8F1010807FB08E64FF0000EA6FB62
:10280000028CE6FB03CEDCF1000CCEF1004E38BFAB
:10281000AEF1010EA6FB0C584FF000074FF000057B
:10282000E6FB0E87A1FB08C6A0FB07CE16EB0E0643
:1028300045F10005E1FB076515F1E04E7EBFA4F50B
:1028400080345FEA46066D4116F1800745F10005C8
:102850004FEA17274FEA066647EA0567A6F1DE4604
:10286000B6F1805F4FEA15251FD9384624F0010CD8
:1028700005EBC471BCF1FE6F01EB0C1102D8F0BC8A
:10288000BDE8008124425CBF01F5801E9EEAC47F42
:1028900002D4F0BCBDE80081244238D4F0BCA1F1E0
:1028A000C041BDE8004100F01AB94FEAD22242EA25
:1028B00043524FEAD323A7FB02864FEAD02040EAD7
:1028C000415007FB03661EEA0E0F4FEAD12105FBBC
:1028D000026658BFA6EB0056B6EB00564FEA520E02
:1028E0004EEAC37E18EB0E0E56EB530EBDD518EB19
:1028F00002085E417F1C55F10005B6E74FF48015D4
:102900004FF000074FF000064FF00008ADE7F0BCB5
:102910004FF0000001F1C04101F00041BDE800812D
:1029200011EA0C1F0CEA131500D00CE013EA0C1F7F
:1029300000F025804FF00000F0BC81EA030101F0B7
:102940000041BDE80081F0BCBDE8004181EA03011F
:1029500000F0C5B8F0BCBDE8004170B500F071F8FA
:10296000097EFC3E00F007B881EA03014FF0000049
:1029700001F00041704781EA030100F0B0B8F0BCFB
:10298000BDE800414FF0000021497047FFFDFBF911
:10299000F7F5F4F2F0EEEDEBE9E8E6E4E3E1E0DE92
:1029A000DDDBDAD8D7D5D4D3D1D0CFCDCCCBCAC804
:1029B000C7C6C5C4C2C1C0BFBEBDBCBBBAB9B8B72B
:1029C000B6B5B4B3B2B1B0AFAEADACABAAA9A8A81E
:1029D000A7A6A5A4A3A3A2A1A09F9F9E9D9C9C9BEC
:1029E0009A99999897979695959493939291919097
:1029F0008F8F8E8E8D8C8C8B8B8A89898888878728
:102A00008685858484838382828181800000FF079C
:102A10000000F87F10F0004248BF4042B0FA80F357
:102A200010FA03F10AD0C3F11D0303F580634FEAE6
:102A3000415002EB035202EBD12170474FF00000EE
:102A400070470EF1020E2EF0030E5EF8046B364254
:102A500005D4012A43EB030515F5001F12D8012800
:102A600041EB010C1CF5001F0CD80ED14FEAD17CB4
:102A700015F5001F0CEB4C0C0CF1020C08BF4CEBD5
:102A8000D37C04E04FF0080C01E04FEAD37C0CEB60
:102A90004C0526FA05F606F00706B6F1040C06D238
:102AA0000EEB860CBDE870404CF0010C6047DFE88F
:102AB0000CF0090B02024FF000414FF00000A1F5AD
:102AC000002170BD19461046012851EB010418BFC2
:102AD000D4F5001484BF002001F0004170BD080847
:102AE000A0F500114FEA31017047000090EA010F94
:102AF00048BF81F0004100F1D481421A3CBF801AE6
:102B000089184FEAD0524FF07F4C1CEA410FA2EBDC
:102B1000D15318BF9CEA026F00F03B804FF0004C8D
:102B20004CEA00204CEA012121FA03FC10EB0C0CCA
:102B30001ED202F1FF325FEA1C2040EBC25038BFC8
:102B400070471CF07F0F4FEA400C18BFBCF17F4F5D
:102B500038BF7047C3F12003994008BF20F001003F
:102B6000BCF17F4F38BF7047A0F1C04000F05BB9A7
:102B70004FEA3C00000A40EBC25028BF1CF0FF0F98
:102B80004FEA400CE6D018BFBCF17F4F38BF70470A
:102B9000EAE79CEA026F05D010EA5C0F08BF00F07C
:102BA0000040704710B500F0F8F800BF64FBBE3E6F
:102BB000401058BFC0F14040491058BFC1F14041DA
:102BC0008142EFF300807047C10DD1F19E0206DB18
:102BD0004FEA002343F0004323FA02F0704700421B
:102BE00007D54FEA4001B1F1FE4F02D24FF000008D
:102BF000704710B500F0D1F849922480002070474A
:102C00006FEA200070470000B0FA80F310FA03F278
:102C1000C3F19D030AD0D90501EB1220530638BF3A
:102C2000704700F1010008BF20F00100704700006C
:102C300050EA010C00F113801CF5000F58BFBCF5E1
:102C4000000F01D48842704707D710F5000F58BF16
:102C500011F5000F15D488427047894270471CF562
:102C6000000F04D5BCF5000FF7D5814270474FF037
:102C7000807C1CEB400F38BF1CEB410F01D281421E
:102C8000704710B500F089F8922449004FF00050C9
:102C90004FF08051FFF78CBF4FF47F0C1CEAD0122D
:102CA0001EBF1CEAD11392EA0C0F93EA0C0F00F03E
:102CB000478090EA010F48BF42F480724FF0004C09
:102CC0004CEA00204CEA012102EB0302A0FB0113B5
:102CD000A2F50002002918BF43F001035B0028BFE2
:102CE0004FEA330342EB22425FEA132C4CEBC25013
:102CF0002EBFBCEB436FB2F57C0F70474FEA036CFD
:102D0000BCF1004F08BF20F00100B2F57C0F38BFC6
:102D100070470BD582F0FF0212F5803FC8BF7047A5
:102D200000F1C040D8BF00F00040704700F5000C33
:102D30005FEA4C0C48BF7047B0F1C04000F073B878
:102D400090EA010F0CEAD11348BF42F48072624549
:102D500038BF634504D280EA010000F000407047AC
:102D600010B500F01AF800BF8900013E00F007B866
:102D700000F009B85FEA410C5FEA1C6C08D080EAF9
:102D8000010000F050B85FEA400C5FEA1C6CF6D11D
:102D90004FF00040A0F5800070470EF1020E2EF0BB
:102DA000030E5EF8044B244204D44FEA4102B2F110
:102DB0007F4F11D84FEA4003B3F17F4F0CD80ED1AB
:102DC0004FEAD07CB2F17F4F0CEB4C0C0CF1020CB3
:102DD00008BF4CEBD17C04E04FF0080C01E04FEA57
:102DE000D17C0CEB4C0324FA03F404F00704B4F197
:102DF000040C06D20EEB840CBDE810404CF0010C24
:102E00006047DFE80CF0070802024FF00040A0F531
:102E1000800010BD0846420018BFD2F1807288BF02
:102E200000F0004010BDFF2141EAD050C0057047BE
:102E300051EA000C00F113801CF5000F58BFBCF5DF
:102E4000000F01D48142704707D711F5000F58BF1A
:102E500010F5000F15D481427047894270471CF568
:102E6000000F04D5BCF5000FF7D5884270474FF02E
:102E7000807C1CEB410F38BF1CEB400F01D2884215
:102E8000704780EA010081EA000180EA0100FFF753
:102E9000F8BE000090EA010F48BF81F000413FF505
:102EA0002CAE421A04D882F00042A0EB020011447A
:102EB0004FEAD0524FF07F4C1CEA410FA2EBD153A6
:102EC00018BF9CEA026F4AD04FF0004C4CEA002039
:102ED0004CEA012121FA03FCB0EB0C0C0FD412F0E8
:102EE000FE0F36D05FEA4C001DD5001240EBC250F9
:102EF00038BF70471CF03F0F18BF70470BE0A2F1BE
:102F000001025FEA1C2040EBC25038BF70471CF042
:102F10007F0F18BF7047C3F12003994014BF401EB4
:102F200020F00100704780084FEA122308BF704765
:102F3000B0FA80FCA2EB0C02CCF1280C60FA0CF089
:102F400093EA122F04BF00EBC25070474FEAC370E0
:102F50007047130A5FEADC1008BF7047F6E79CEA87
:102F6000026F04D010EA5C0F08BF0020704710B554
:102F7000FFF713FF40DFF63E81F00040704700E0AE
:102F800010080810E000000F102020100F000000B3
:102F90001010F8000000000020203F2020000070EA
:102FA00008080808F00000302824222130000030F2
:102FB0000808088870000018202121221C00000049
:102FC000804030F8000000060524243F242400F847
:102FD0008888880808000019202020110E0000E0D1
:102FE000108888900000000F112020201F0000187A
:102FF0000808886818000000003E0100000000700A
:10300000880808887000001C222121221C0000F082
:1030100008080810E0000001122222110F00001021
:1030200088443300FC94947C4A4AC90000000201A1
:103030007F201807007F2A2A15153F000000008016
:103040008448C000E808F90AF8448404000000102D
:10305000101B1411242320244F4040410000F8F895
:10306000F8E0F03818003F3F3F030F3F3C00F8F80E
:10307000F81818F8F8003F3F3F0303030100F8F881
:10308000F8E0F03818003F3F3F030F3F3C000000DE
:10309000F8F8F800000000003F3F3F000000F8F89B
:1030A000F8E0F03818003F3F3F030F3F3C00F8F8CE
:1030B000F81818F8F0E03F3F3F30383F1F0F00008E
:1030C00080C0E0F0F8FCFEFFFFFFFF000000000002
:1030D0000103070F1F3F7FFFFFFFFF0000000040BD
:1030E00042CC0040445454BFAAAA20200000000053
:1030F000001F08007F15150A2A7F0000000000D07D
:1031000030EF88A89048D4138C08D0202000050503
:10311000057F02027F097F000F207F000000000072
:1031200000000002CC30C0000000000000000020C1
:1031300010080403000000030C3020202000004091
:10314000405058D432A9286AAC282000000004045A
:1031500002425552292412080401020202000020F2
:10316000A468FF20589660B827E010100000404582
:10317000242C132E42402019061960404000F0F81C
:10318000F81C18F8F8000F3F3F30303F1F00F8F8E8
:10319000F8E0F03818003F3F3F030F3F3C000000CD
:1031A0007CFCFC0000000000303F3F3000008080CD
:1031B0004044C800FC24A4149272020000000010D5
:1031C00010131C14032824234142444040000000F3
:1031D000F80808C84824E4040404FC0000000000C7
:1031E0001F1010131211090808080F00000000003A
:1031F00000000000000000000000000000000000CF
:10320000000000000000000000000000000000209E
:10321000A468FF20589660B827E0101000004045D1
:10322000242C132E42402019061960404000001043
:103230009090FF4800FC9494F24A4E4040000101F7
:1032400010207F201F007C4427223E000000804089
:10325000F00C839090704F484848404000000000B8
:103260007F0000001312223947010000000000D047
:1032700030EF88A89048D4138C08D0202000050592
:10328000057F02027F097F000F207F000000000001
:1032900000F8808080FF4040407C0000000000007B
:1032A0007C404040403F202020207E000000806085
:1032B00058C724248090FE90907F48480000000268
:1032C000023F1109007E4A4A2A217F0000000000C7
:1032D00000FCFC00000000000000000000000000F6
:1032E00000191900000000000000000000000000AC
:1032F00000FCFC00000000000000000000000000D6
:10330000001919000000000000000000000080808B
:1033100044C800049C644CC2B2AD80000000101090
:10332000131C10112D29294744464040000000205D
:1033300020FF9000309070090A48980800000202AF
:10334000217F00202122223E1111101010000020A8
:10335000A0FF5090E8BF94545CF7040400000403FD
:10336000007F00482B1A0A070D1564444000000036
:1033700020202020A0BFE012141010000000002028
:103380002011110F08080106081020780000001015
:103390001090525450D00CCB08E8080800000000F0
:1033A000007F0505207F000F207F000000000080C7
:1033B0008448C09090FF9090FF4848400000001063
:1033C000101B1428262120205F40404040008040F0
:1033D000F00C0304745455AABA82828000000000E5
:1033E0007F0003010515257C02020100000000009A
:1033F00000E0000000FF80804040000000004040EE
:10340000407F4040403F202020202020000000102E
:1034100010101090700F088888880808000000209D
:103420001028262121211F1010101010000000105C
:103430009070CF88089090704F48480000000008B6
:1034400009097F040400132259070100000000103D
:10345000101090701C1310100808080800001008C5
:1034600004027F22222211111F0000000000001020
:103470009070CF88089090704F4848000000000876
:1034800009097F040400132259070100000000000D
:1034900000F8484844242222212020000000403027
:1034A0000E01003E222211111F00000000000080CA
:1034B0008458C00000FC54542A3E800000001010C4
:1034C00010131C20202F2441424D404000000000DA
:1034D000F0340008000000203C0000002801000833
:1034E0002C3500083C000020840600004401000840
:1034F000000000000102030401020304060708099A
:1035000002040608000005000000000000000000A2
:10351000000000000000807F0000000000000000AC
:0C3520000000000000000000000000009F
:04000005080000ED02
:00000001FF
