:2000000000802020B9720000AD720000AD72000000000000000000000000000000000000B7
:20002000000000000000000000000000AD7200000000000000000000AD720000AD72000063
:20004000AD720000A9470000AD720000AD720000AD720000AD720000AD720000AD720000D7
:2000600000000000AD720000AD7200000000000000000000AD720000AD7200001D67000080
:20008000AD720000AD720000AD720000AD720000AD720000AD7200000000000000000000A6
:2000A000AD720000AD7200000000000000000000AD72000000000000AD720000AD720000A5
:2000C000F0B5FFB08EB0049306920646929802900025E84305908C913468204607F064F800
:2000E00021188B9503918C4200D3BBE00020879087A908738890059889902F46049D207879
:20010000002800D1AFE0252805D0641C34600699A8477F1CF3E78B97601C306087AC204657
:20012000314600F0A7F88CAA2046314600F0BFF8306801787A2925D0682919D06A2908D071
:200140006C290ED0742908D04C2922D1879980221BE087990122D20217E0879901225203EC
:2001600013E0427887996C2A64D10122120205E042788799682A60D101225202114387914B
:20018000801C05E08799012212030A438792401C0178441C346087A8017373291FD06E2992
:2001A00029D1879832490840202850D040283CD001214A03904238D04A02904242D0CA0242
:2001C000904205D00A0390422FD0090288422CD1F8178C9904C98C91176050603BE087A839
:2001E0000078400619D4009587A88CAA8BAB069900F01DF92FE007AD87A98CAA284600F0F8
:200200006DF9024628460699029B9847411C059D00D0C5198B9503991FE0009587A88CAA45
:200220008BAB069900F09FF815E08C9802C88C900F6010E0401C402201E0401C2022114373
:200240008791A5E78C9802C88C900F7003E08C9802C88C900F8003998B9D681C00D042E7B4
:20026000059F00E02F4638467FB00EB0F0BDC046603F000010B50A681378302B0FD0232B7E
:2002800007D02B2B09D02D2B05D0202B0ED1042306E0082304E0012302E0022300E01023A7
:2002A00004681C430460521C0A60E5E710BDFEB516460D460446086802782A2A10D130683B
:2002C000011D316000686060002805D54042606020680121014321602868471C2F6017E01B
:2002E0000021303A092A08D84218531C2B60435C6F467B545278491CF3E76A460023535466
:2003000012784718002A03D0684605F05DFF606038782E2826D1781C286079782A2908D102
:200320003068011D31600068A0602868401C2860FEBD00203039092908D839188A1C2A60C3
:200340004A786B461A548978401CF3E76A46002111541078002804D0684605F035FFA060F4
:20036000FEBDA160FEBDF0B587B01E460C9F13681C1D14601D68002D3BD00491069084681F
:20038000002C04D4284606F0F9FE844203D3284606F0F4FE044606984068A042039000DC2B
:2003A000204601463068019140180296306005940398A0420EDD06980078C0070AD1059890
:2003C00001990E1A0024B44204DA20200499B847641CF8E70026049C069805998E420BDA71
:2003E0002868010A19D12D1DC0B22146B847761CF2E70020B84718E00599039A8A4214DDDC
:200400000078C00711D00198451A0024AC420CDA20200499B847641CF8E70020C0430299D3
:20042000086006F01DFF5821016007B0F0BDF0B585B00C4606460A9D1068011D1160006876
:200440000490002844D00393B768002F04D4049806F0AAFE874203D3049806F0A5FE0746B5
:2004600002967268BA42114600DC3946039B18680091401818600192BA420FDD0298007850
:20048000C0070BD10098C01B039000260398864204DA20202146A847761CF7E70026BE4220
:2004A00005DA0498805D2146A847761CF7E70198B84210DD02980078C0070CD00098C61B70
:2004C0000027B74207DA20202146A8477F1CF8E700202146A84705B0F0BDC046F0B589B04F
:2004E00001920F460446FF210846FA30251878680290002607960391FE31202220460092C3
:2005000006F044FE7F20800006942118089104952E713D46387B0246613A172A2AD8012360
:2005200093402C46B44D2B42254608D007A908AA2846019B00F066F900260596B3E0712520
:200540002B42254622D1022A14D1019B1868021D1A600068C2B2534253410593039AFC32A2
:20056000069B9A18089208702868022188432860002698E001464539032907D3252860D02A
:20058000412803D058280596D0D08DE0019A1068C11D0720814308460830106005C9D14343
:2005A0002F7B4900490D0BD17B3F944911400143049C2CD01920C1438F4234D36E2033E098
:2005C000002A01D4114602E00121C9075140D60F002205923A46413A062A0BD9613F062FDE
:2005E00061D8C0467F443F797F00BF440B5C5C5C3B3631007A441279520097440354545489
:20060000332E290008AB2A4601F036FB4BE0002311461A46059305F09BF81921C9438F42CF
:2006200025D3662224E04E20E0708F4201D3612100E04121A17008946070002005900226B5
:2006400031E0002006994870252008700120A1E008AB2A4601F034FF25E008AB2A4605F04F
:20066000CDFA20E008AB2A4603F052F81BE04622E2708F4201D36E2200E04E22A2708F4236
:2006800001D3692100E0492161703F21C900069A51180891002803D02D202070042602E032
:2006A0002B2020700326287B012701466F39092904D801228A4052490A4201D158286BD10C
:2006C000049B029C04972946069F3D1908980C460978C90707D1191D091A62689142069F22
:2006E00001DC691A4F1C411C0398430000263846324606F041F908900599002903D0411C19
:200700000891067000E00146A94206D8481E691A491C202206F03AFD2E702078C00605D448
:200720000698391A202206F031FD2EE0069887422BD00698391A3026324606F027FD07987A
:200740004142414104980140012905D12078400702D43846069905E03878069A511C1070C3
:20076000781C3E70227B412A0CD0582A05D0612A08D0782A01D0702A07D123781B0701D422
:20078000612A02D142784A704670069806F00CFD0599401809B0F0BD002E09D0012E049B03
:2007A000029C8FD10120079029680220084007E0079A296802200840002A09D0049B029CC5
:2007C00008994A1E08922D220A704742474179E70028049B029C08D1480700D472E70898E2
:2007E000411E0891009901706CE70898411E08912B210170002765E708C19000FFFF0F0076
:2008000043020000F8B514460F4605468068002804D4286810218843286001E00120A860E6
:20082000287B1026582808D0782806D0702804D06F2801D1082600E00A262846194600F041
:2008400055F8AA68002A09D102460A4306D12878000749D52B7B0020024612E02B7B642BCF
:2008600003D1642300290BD504E0692B08D1002906D5692301223A60002240428A4100E027
:200880000A4600941146324600F0B0F8A968884206DA401C21684A1E226030220A70F5E7DB
:2008A000287B582803D0782801D070280FD1297809070CD5702800D1782021684A1E226053
:2008C00008702068411E216030210170287B6F280AD12878000707D520684178302903D071
:2008E000411E216030210170F8BDC04610B5037B702B05D10868021D0A60006800226FE015
:200900000068384A024001204403A24222D0402A20D00402A24230D04402A24246D0C40223
:20092000A2422AD00403A24214D0202A12D100221C46643C142C06D8A0402B4C204204D10D
:20094000212420423ED1582B49D10868031D0B60008845E000221C46643C142C06D8A0407A
:20096000214C204204D1212420422BD1582B36D10868031D0B60006832E01A46643A142AF5
:2009800006D89040184A104206D12122104203D10020582B024623D10868C21D072082439B
:2009A0001046083008601068526819E000221C46643C142C0CD8A0400B4C20420AD1212415
:2009C000204205D00868021D0A600068C21707E0582B04D10868031D0B60007800E01046BE
:2009E000114610BD603F000000081200FEB501920D460646582B01D0174800E015480090B5
:200A0000089802903046284305D1029A1068411E116030210170019C3046284313D0304670
:200A20002946224600F01AF807460D46224605F07FFF301A0099085C029B19684A1E1A601B
:200A400008703E46E8E70298006806F0ADFB401EFEBDC046668200007782000080B5102ABC
:200A600006D0082A09D1C0084A078018C90880BD00090A078018090980BD002904D111467F
:200A800005F062FB002180BD002306F027FB80BD70B598B01690159114A8027011AB01206A
:200AA000187000205870D949486800780968897C022205F0D7FC002804D0FFE70020C04315
:200AC00017902FE2C82006F0F7F811AB00201870CE49486800780968C97B012205F0C2FC63
:200AE000002804D0FFE70020C04317901AE2C7494868007809684979012211AB05F0B2FC61
:200B0000002804D0FFE70020C04317900AE2BF49486800780968897C012211AB05F0A2FC25
:200B2000002804D0FFE70020C0431790FAE1B749486800780968C97D012211AB05F092FCED
:200B4000002804D0FFE70020C0431790EAE1F7494868007809680979012211AB05F082FC71
:200B6000002804D0FFE70020C0431790DAE111AB0C201870ED49486800780968097901222A
:200B800005F070FC002804D0FFE70020C0431790C8E10F2006F090F8E449886A407A11AB5D
:200BA00018704868007809688978012205F05AFC002804D0FFE70020C0431790B2E1DB4942
:200BC000886A007A11AB18704868007809684978012205F047FC002804D0FFE70020C043AB
:200BE00017909FE114A80078002808D0FFE7CF48806A807AE021084311A9087005E0CB4843
:200C0000806A807A11A90870FFE7C8494868007809688979012211AB05F024FC002804D03C
:200C2000FFE70020C04317907CE114A80078002808D0FFE7BD48806AC07AE021084311A95E
:200C4000087003E011A918200870FFE7B749486800780968C979012211AB05F003FC002813
:200C600004D0FFE70020C04317905BE114A80078002804D0FFE7C82006F01EF8FFE711AB08
:200C800040201870A9494868007809680979012205F0E8FB002804D0FFE70020C0431790B8
:200CA00040E111AB78201870A0494868007809684979012205F0D6FB002804D0FFE7002008
:200CC000C04317902EE1322005F0F6FF11AB0020187096494868007809684979012205F069
:200CE000C1FB002804D0FFE70020C043179019E18E49486800780968897A022211AB05F04A
:200D000093FB002804D0FFE70020C043179009E11198000211A9497841180EA80180008871
:200D20000C2105F011FA10A908701699002088601699486016990860159988601599486044
:200D4000159908600FA90870FFE70FA8007810A9097888425CDAFFE77449486800780968C2
:200D6000C97A0C2211AB05F05FFB002804D0FFE70020C0431790D5E01198000211AD09958F
:200D8000697841180CA80180A9780902EA7889184180129909026A79891881800023C45E74
:200DA000159A1168091911600222865E159C6168891961600421465E159CA0688019A06078
:200DC000A8790002EC7904190AA80480139C24026E7AA4194480AC7A2402ED7A64198480C6
:200DE000C55E169C23685B192360845E169B5A6812195A60425E1699886880188860FFE7BD
:200E00000F98401C0FA908709FE7C046F0002020169800900068C117020C090489180004A5
:200E2000832202920023079306F04EF9079B10AA0692127806F048F90099029A079B08608B
:200E4000169801904068C117040C09040919000406F03AF9069A079B127806F035F90199DD
:200E6000029A079B4860169803908068C117040C09040919000406F027F9069A079B127866
:200E800006F022F90399069A079B8860159804900068C117040C0904091900046405C00A84
:200EA0000019C912127806F00FF90499069A079B0860159805904068C117040C090409196E
:200EC00000046405C00A0019C912127806F0FCF80599069A079B4860159808908068C117E6
:200EE000040C0904091900046405C00A0019C912127806F0E9F808998860159880680128E0
:200F000006DBFFE715998868094A8018886006E0159988680122120480188860FFE7002056
:200F20001790FFE7179818B070BDC046F00020200000FFFFF0B589B00F4605460120C107E5
:200F40003E468E43B14886420BD3D1483018284300D190E006F084F921210160CD4900253F
:200F600050E1AB48864212D8C64AC74B2846394601F069FC0022A54B04F008FC002800D133
:200F800086E0C248864200D382E039463AE10291089700249D4920462A46334601F04EFC84
:200FA0009C4B224602F0D2FF05460F469A4A9B4B02F0CCFF9A4A9B4B01F045FC06F022F9EB
:200FC000994A9A4B01F03FFC06F01CF9984A994B01F039FC06F016F9974A984B01F033FC3D
:200FE00006F010F9964A974B01F02DFC06F00AF906900791944A954B06F052F9944A954B32
:2010000001F021FC06F0FEF8934A944B01F01BFC06F0F8F8924A934B01F015FC06F0F2F890
:2010200022467A4B01F00FFC039004912846394601F008FF05900C468B48864200D283E0C3
:2010400006F0FDF802460B46059D2846214602F07DFF2A4606F02EF902460B4601F0F3FB22
:20106000824A864B01F0EFFB02460B468148844901F0E4FBC0E07D4A7D4B06F011F9044680
:201080000E467C4A7E4B06F00BF92246334657E0284639462A463B4602F058FF0646089749
:2010A0000F465D4A5D4B02F051FF5D4A5D4B01F0CAFB06F0BFF85C4A5C4B01F0C4FB06F0A5
:2010C000B9F85B4A5B4B01F0BEFB06F0B3F85A4A5A4B01F0B8FB06F0ADF8594A594B01F009
:2010E000B2FB06F0A7F804460791574A574B3046394602F02BFF564A564B01F0A4FB06F0B1
:2011000099F8554A554B01F09EFB06F093F8544A544B01F098FB06F08DF800223B4B01F01F
:2011200092FB02460B462046079902F095FC02460B462846089C214602F008FF2A4623461C
:2011400001F081FB05465DE000263046214632460196234602F0FAFE02460B4628463946AF
:2011600001F06CFB00900F46059D28462146324606F0A0F802460B460098394602F06CFCAB
:2011800006460F4606F05BF807900691284621462A4606F08FF805900491304639463246DE
:2011A0003B4601F050FB02460B463048304901F045FB05460F4605980499079A069B02F0A9
:2011C000C5FE2A463B4601F039FB05460F4601982146024606F06EF802460B46254C264E74
:2011E0002046314601F02AFB2A463B4601F026FB2246334601F027FB05460898002801DC15
:2012000002984140284609B0F0BDC0460000F03FFFFFDF3F0000E03F09F7FD0DE13D023F06
:2012200088B20175E0EF493F3B8F68B52882A4BF5544880E55C1C93F7D6FEB0312D6D4BF11
:20124000555555555555C53F82922EB1C5B8B33F59018D1B6C06E6BFC88A599CE52A00407B
:201260004B2D8A1C273A03C03333EF3F075C143326A6913C182D4454FB21E93F26A691BC1B
:20128000FB21F93F9C7500883CE4377E0000503E000010C00000F87FF0B587B005460F463B
:2012A0000122D0070E468643924886420DD3B448864203D8002D3FD086423DD128463946F7
:2012C0002A463B4601F0BFFAE2E08B488642039112D8914A914B2846394601F0B4FA002431
:2012E0008B4B224604F052FAE1430291002869D0B00DF92866D2CDE08048864220D8854840
:2013000086423FD8284631462A46334601F09BFA00277C4B3A4601F096FA044628460D46A0
:2013200001218B07314602973A4601F08CFA02460B462046294636E0002920DC924F1FE069
:201340006F48864234D800246F4B284605F09CFF2A4605460F466D4B10463146224602F037
:20136000F5FD6B4B224601F06EFA02460B462846394602F071FB05460F46022021E0814F8D
:20138000824D87E0029200245E4B284605F07CFF2A4605460F465E4B104605F075FF024618
:2013A0000B462846394602F057FB05460F4609E0002054492A46334602F04EFB05460F46A1
:2013C000032002900695284639462A463B4602F0BDFD0590049102460B4602F0B7FD044680
:2013E0000D464F4A4F4B02F0B1FD4F4A4F4B01F02AFA05F015FF4E4A4E4B01F024FA05F041
:201400000FFF4D4A4D4B01F01EFA05F009FF4C4A4C4B01F018FA05F003FF4B4A4B4B01F046
:2014200012FA02460B460598049902F08FFD04900591474A474B2046294602F087FD464A27
:20144000464B01F000FA05F0EBFE454A454B01F0FAF905F0E5FE444A444B01F0F4F905F067
:20146000DFFE434A434B01F0EEF905F0D9FE224A964213D8049A059B01F0E5F902460B46FB
:2014800005F0EAFE02460B462046394601F0D6F905460F462846394607B0F0BD029AD400D0
:2014A000354A1319125902925A680192049A059B01F0C9F902460B463048011906594D68FD
:2014C00005F0CAFE32462B4601F0B8F922463B4601F0B4F902460B460298019901F0AEF9D8
:2014E00005460F4603980028D4D50120C0074740D0E7C04600001044FFFFDB3FFFFFF23F19
:20150000FF7F03400000F0BF0000F8BF0000F83F0000F03FFFFFE53F9C7500883CE4377EAE
:2015200011DA22E33AAD903FEB0D76244B7BA93F513DD0A0660DB13F6E204CC5CD45B73FBD
:20154000FF8300922449C23F0D5555555555D53F2F6C6A2C44B4A2BF9AFDDE522DDEADBF77
:201560006D9A74AFF2B0B3BF711623FEC671BCBFC4EB98999999C9BF2080000040800000D9
:201580000000F07FFB21F93FFB21F9BF182D445480B58AB009A90591088006AA0492022030
:2015A0001070CA205070E32090700920D0706820042103F0C5FA049A0598A321117000882E
:2015C0004006002808D5FFE706A9C0204870C8208870C220C87005E006A9A3204870887092
:2015E000C870FFE709A80088C005800F002808D0FFE706A9C4200871CC204871C6208871CA
:2016000005E006A9A320087148718871FFE706AAA320D0711072507275480A2103F090FA05
:2016200009A800888007002804D0FFE706A92020087003E006A9D8200870FFE76D480121E2
:2016400006AA03F07DFA09A800888006002804D5FFE7012004F0D6F803E0002004F0D2F826
:20166000FFE709A80088C005800F002820D0FFE709A80088C00500280AD5FFE706A9B2208D
:2016800008708B204870B62088709B20C87009E006A9B020087080204870B42088709020FA
:2016A000C870FFE75448042106AA03F049FAFFE709A80088C007002826D0FFE706AAF820B3
:2016C00010708B2000010121039103F039FA07200290FA2100F0B4F9029803F0FCFF03986E
:2016E00004F0CEFC642004F0E9FF7D20800004F0FDFF4248C82104F0A1FC282004F094FFEC
:201700000A2004F0AAFF08E006AAD82010708B200001012103F014FAFFE709A8008880077D
:20172000002804D5FFE706A9D920087003E006A9D8200870FFE73248012106AA03F000FA81
:2017400009A800884007002804D5FFE7012004F02FFC03E0002004F02BFCFFE709A80088A5
:20176000C006002804D5FFE7012004F0FDFB03E0002004F0F9FBFFE709980821084321495F
:201780000191488100F088FB01990020887309A800884006002805D5FFE71A49887B801D5C
:2017A0008873FFE709A80088C005800F002805D0FFE71449887B801D8873FFE709A80088C1
:2017C0001421084205D0FFE70E49887B10308873FFE709A800888007002805D0FFE709495F
:2017E000887B001D8873FFE700200AB080BDC046A70A0000B60A0000A20A000009E3CA02F6
:201800003D07000058012020B0B5A8B026A801907F48219000907F487F4922AA27AB00F0AA
:2018200055FD21980088C005002800D4EEE0229804F0A0FD9D21C905039103F001FD77496A
:2018400014910860239804F095FD039903F0F8FC734911910860249804F08CFD039903F029
:20186000EFFC704912910860259804F083FD039903F0E6FC014611986B4A139211600068F4
:2018800003218907099103F0C9FB1399024614980592096804910168084602F088FD12992D
:2018A000096803F0BBFB049902460598069203F0B5FB069902F07BFD04F066FCFFF73AFBC7
:2018C0005A4A1F925A4B209302F040FB03F0F0FD01461298574A116001680A91084602F007
:2018E00066FD1399024614980B92096807910168084602F05CFD119909680C9103F08EFB09
:20190000079902460B98089203F088FB089902F04EFD04F039FC02460C980F920A460999A6
:20192000109203F07BFB0A9902460B980D9203F075FB0C9902460D980E9203F06FFB0E99D6
:2019400002F030FD7F21C90502F031FD04F01CFC02460F980B46109901F03AF81F9A209B4E
:2019600002F0F4FA03F0A4FD119B129A139904461498314D2C601B68169312681992006836
:20198000179009681B9103F049FB199902461698159203F043FB159902F009FD0146084691
:2019A00002F005FD04F0F0FB1D90084616991E90084603F033FB17991890084603F02EFBCB
:2019C000189902F0F4FC19991A90084603F026FB01461A9802F0E6FC1B991C90084603F048
:2019E0001DFB01461C9802F0DDFC04F0CDFB02461D980B461E9900F0EBFF1F9A209B02F008
:201A0000A5FA03F055FD0D490860FFE728B0B0BDB2012020AC012020A60120208001202071
:201A200084012020880120208C0120206666666666A64C40B8012020B4012020BC01202030
:201A400080B58AB0024608A8027007AA118000784007002806D0FFE707A8008880498842FE
:201A600004DBFFE70020C0430990F5E007A8008804F010FF7B4903F0E3FB049005A8009070
:201A800003F050FD00980078801E01900E286BD80198810001A040588746C046D91A000035
:201AA000691B0000FD1A0000691B0000691B0000691B0000211B0000691B0000691B0000BB
:201AC000691B0000691B0000691B0000691B0000691B0000451B000004988D21C90503F007
:201AE0009DFA04F037FD03A908800498614903F095FA04F02FFD02A9088039E004982321DF
:201B0000490603F08BFA04F025FD03A908800498574903F083FA04F01DFD02A9088027E0C0
:201B200004988B21C90503F079FA04F013FD03A9088004984D4903F071FA04F00BFD02A9BA
:201B4000088015E004984521090603F067FA04F001FD03A908800498434903F05FFA04F015
:201B6000F9FC02A9088003E00020C043099073E003A8407806A908700398487002A840780C
:201B800088700298C87008A80078C00700281CD0FFE775208000022106AA02F0D1FF0028C0
:201BA00004D0FFE70020C043099055E006A8821C49208000022102F0C3FF002804D0FFE78C
:201BC0000020C043099047E0FFE708A80078800700281CD5FFE73B20C000022106AA02F0AE
:201BE000AFFF002804D0FFE70020C043099033E006A8821C2520C000022102F0A1FF002858
:201C000004D0FFE70020C043099025E0FFE708A80078400700281CD5FFE7772080000221BB
:201C200006AA02F08DFF002804D0FFE70020C043099011E006A8821C4B208000022102F09B
:201C40007FFF002804D0FFE70020C043099003E0FFE700200990FFE709980AB080BDC04662
:201C600041060000000048430000C044000040450000C04500004046F0B5A5B00493089253
:201C80000E46074600240A947E4D22462B4603F073FD002813D100247B4D38463146224685
:201CA0002B4603F05FFD002809D1002238463146134603F043FD00283C46354607D10AAA0E
:201CC0002046294603F08EFE0A98401E0A900899087B0BAE412801D06D4800E06B4809901E
:201CE000886801903020039030700022079220462946134603F02CFD01210028029101D02D
:201D0000C8074540771C20462946079A134603F015FD00280DD124AA2046294603F062FE0C
:201D2000249801210A1A2046294602F0CFFA04460D462046294604F0A9F8064639460597A3
:201D400003F030FF0690304604F014FD05F04DFA04460D460198471C20D3059806994618EE
:201D6000002220462946134603F0E8FC002848D1002220462946474B02F0E8F804460D4603
:201D800004F084F80999095C771C317004F0F2FC05F02BFA04460D463E46E1E70BA8069961
:201DA0004618002F16D07F1E002220462946394B02F0CCF804460D4604F068F80999095CEA
:201DC0003246761C517004F0D5FC05F00EFA04460D46E6E73178099C204605F089F9001BC6
:201DE00008280EDB0196741E089D079F099E2178304605F07DF9801B0E2805DD2770641E69
:201E0000F5E7089D079F04E00999081840782070019E37700A98297B4129049C01D07021B5
:201E200000E05021069E059F224603F069FFAA68501C04D1384605F0B7F9421EAA603846E8
:201E40003146234604F022FCA8680028029A02D128680007C20F38463146234603F008FC2C
:201E6000287B412801D0782000E0582021684A1E226008702068411E21600399017025B060
:201E8000F0BDC0460000F07F0000F0FF66820000778200000000304080B582B08548807AB2
:201EA000002804D1FFE70020C0430190FEE06B46002018707F49486800780968C97B01228C
:201EC00004F0D0FA002804D0FFE70020C0430190ECE07849486800780968497901226B46F2
:201EE00004F0C0FA002804D0FFE70020C0430190DCE07049486800780968097901226B463A
:201F000004F0B0FA002804D0FFE70020C0430190CCE068482421405C002861D0FFE76B4660
:201F20000C20187063494868007809680979012204F098FA002804D0FFE70020C0430190E7
:201F4000B4E06946C02008705A48807AC007002806D0FFE700982021084369460870FFE76E
:201F60005449486800780968097901226B4604F079FA002804D0FFE70020C043019095E063
:201F80004C48407C002804D0FFE769460220087003E0694600200870FFE7464948680078FF
:201FA0000968C97B01226B4604F05CFA002804D0FFE70020C043019078E06B460020187007
:201FC0003C494868007809684979012204F04AFA002804D0FFE70020C043019066E062E0A8
:201FE0006B460420187033494868007809680979012204F037FA002804D0FFE70020C043A0
:20200000019053E02B48807C002806D1FFE72948807AC007002804D1FFE76946402008700C
:2020200003E0694660200870FFE72249486800780968097901226B4604F014FA002804D0D8
:20204000FFE70020C043019030E01A48407C002804D0FFE769460120087003E069460020DC
:202060000870FFE71349486800780968C97B01226B4604F0F7F9002804D0FFE70020C0430C
:20208000019013E00B4B58680078196849791033012204F0E7F9002804D0FFE70020C043AC
:2020A000019003E0FFE700200190FFE7019802B080BDC046F000202080B588B005AB8020B4
:2020C00018707D49486800780968897C012204F0C9F9002804D0FFE70020C0430790E8E0D7
:2020E000642004F0E9FD05AB002018707249486800780968897C012204F0B4F9002804D011
:20210000FFE70020C0430790D3E06B49486800780968897D062205AB04F086F9002804D0D2
:20212000FFE70020C0430790C3E005A94879C007400FCA78D207920F80184978012211404E
:20214000411804A80170007800281DD0FFE704A80078012804D1FFE757490120C87412E09F
:2021600004A80078022804D1FFE753490020C87408E004A80178534803F062FC0020C04342
:20218000079096E0FFE732E04B49486800780968C978012205AB04F047F9002804D0FFE7E3
:2021A0000020C043079084E005A801780F20014004A801700078002807D1FFE73F4803F076
:2021C0003FFC0020C043079073E004A80078042807D1FFE73A4803F033FC37490120C87428
:2021E00003E035490020C874FFE7FFE7FFE732490291FF2088720A46083208724872C87251
:20220000314BCB810874887401200873907600200390D076487508750884C88388834883FC
:202220000883C88210775077C8847D20000102F0F7F9002804D0FFE70020C043079038E0FB
:20224000022001F0F5FE002804D0FFE70020C04307902EE02A2002F07BF9002804D0FFE73C
:202260000020C043079024E0322001F0F9FD002804D0FFE70020C04307901AE0002002F0BF
:20228000F3FA002804D0FFE70020C043079010E0002000F003FA002804D0FFE70020C043B3
:2022A000079006E00020019001F008F901980790FFE7079808B080BDF0002020D17F0000D4
:2022C0002C82000030810000FFFF000010B594B0179C169C1290119110920F9306A90020DC
:2022E0000870169908807448807B179A07A901F0BDFC002804D0FFE70020C0431390D7E00E
:202300006D484089142108426CD0FFE70798000607A900914A78120480188A78120280189A
:20232000CA788018109A1060089800064A79120480188A7912028018CA798018109A5060AE
:20234000099800064A7A120480188A7A12028018CA7A8018109A90600A9800064A7B1204BB
:2023600080188A7B12028018C97B40181099C8600698103006A9087010980221405E0290A7
:2023800010980621405E039010980A21405E049010980E21405E05900298404303994943E9
:2023A0004018049949434018059949434018019001980F210906884205DBFFE701983F49A8
:2023C000884208DBFFE7FFF767FD169900200880C04313906CE016990888012212021043FE
:2023E0000880FFE7344840894006002823D5FFE706A9087807AA1318105C00025B78C018BA
:20240000119B18800878831898780002DB78C018119B588008788218107900025279801894
:20242000119A90800698801D087016990888082210430880FFE720484089C005800F002857
:2024400023D0FFE706A9087807AA1318105C00025B78C018129B188008788318987800020D
:20246000DB78C018129B5880087882181079000252798018129A90800698801D0870169986
:202480000888702210430880FFE70B4840898007002807D0FFE706A8017807A8401802F0B1
:2024A00003FEFFE70F9804F0EBFE00201390FFE7139814B010BDC04658012020010000111B
:2024C000F0B5A3B003930F46044604929168002903D0002904D5062100E00121049881609C
:2024E00007910AA83021089101700025204639462A462B4603F02CF901210028059101D083
:20250000C8074740624E20463946604A334603F03DF9002809D00022204639465E4B01F0E2
:202520009BFA04460F466D1CEDE75A4E0022204639460992134603F001F9002811D100224E
:2025400020463946334603F003F9002809D0002220463946504B01F0F9FC04460F466D1E7B
:20256000E4E702950AA8451C2046394603F08EFC0695294603F016FB07998842019004DD9A
:20258000481C0AA90A18085C1FE0C9430E180AA90D18681C07902046394603F077FC04F03B
:2025A000E9F802460B462046394600F047F90022394B01F0CBFC04460F4603F067FC079A98
:2025C00030306870761C1546E3D3C0B23528039E049F029B099D0FD31446501E0178491C42
:2025E000CAB201703A2A03D330210170401EF5E70AA98842224640D00198C41815700220A7
:20260000C043844202DBB868844207DD601E397B891EC9B2324603F073FB0124069804F066
:20262000C3FD401E0599A0421ADB0028089A01D4069A125C1346303B5D1EAB41C9431943C7
:20264000C90705D13978090702D40025059905E031684B1E33600A7001250021401EE2E718
:202660003868082202402A43501E824106982146334602F0FDFF23B0F0BD501E00210170C4
:202680000198C018441C0AA80690B8E70000C0FFFFFFDF410000F03F0000244080B584B0A9
:2026A00002A908706448807C0978884203D1FFE700200390BDE002A80078002853D0FFE7A7
:2026C0005D494868007809680979012201AB03F0ABFE002804D0FFE70020C0430390A8E0AE
:2026E00001AB1878DF210840187053494868007809680979012203F0B5FE002804D0FFE76C
:202700000020C043039094E0032004F0D5FA01A90220087048482221405C002806D0FFE712
:2027200001988021084301A90870FFE742482321405C002806D0FFE701983021084301A9DF
:202740000870FFE73C49486800780968097D012201AB03F087FE002804D0FFE70020C0432B
:20276000039066E05FE034494868007809680979012201AB03F058FE002804D0FFE700208F
:20278000C043039055E02C48807AC007002806D0FFE701982021084301A9087005E001A97F
:2027A0000878DF2210400870FFE723494868007809680979012201AB03F054FE002804D053
:2027C000FFE70020C043039033E0032004F074FA19482221405C002804D0FFE701A9802059
:2027E000087003E001A900200870FFE712482321405C002806D0FFE701983021084301A959
:202800000870FFE70C49486800780968097D012201AB03F027FE002804D0FFE70020C043FA
:20282000039006E0FFE702980349887400200390FFE7039804B080BDF0002020FCB401242D
:20284000E407634002E0FCB40124E40708B41D03ED08D60D354356025F007F0D06D12C00D6
:20286000344300D0AEE001B0FCBC7047A408254307242402FF34A74205D10020190D0905B8
:2028800001B0FCBC7047002B03D50024A61BAC4125000B03DB08C20D134342024800400D2F
:2028A00007D11C00144300D08CE00EBC1000F0BC704701246407234307242402FF34A042F8
:2028C00005D10020090D090501B0FCBC7047002903D50024A21A9C412300C11B08D51C0008
:2028E0002B0025001400320026000024611A3800362925D502B4393949420C00203C03D2FC
:202900002F008F40374301E03700A740002F01D040210E4302BC20290BD500290ED04C4212
:20292000203420B4A5402C0020BC0D41CE40361904E000292E000D4120390E4192196B414F
:202940001C0014433ED00024002B04D5012400218A1A99410B00401E52005B41FBD50121C1
:20296000890215000D400CD0521800277B4101D3401C0BE00721C90115000D4001D1890077
:202980008A43072109028A4352005B41801C19DD07210902FF31884209D30EBC0020C90F1F
:2029A0000902FF31C900C91D0905F0BC7047190B00050143E40721431805120B104301B0C2
:2029C000FCBC70470021002001B0FCBC70477047F0B585B01E46054602920390504B514F85
:2029E00004963E40501E1446844134439C4207D80F40681E2C4684413C434948844208D93B
:202A00000398029A049BFFF71EFF0C46214605B0F0BD4548049B181810431AD00C46C90FEF
:202A2000D80F4000019141183D4316D032431CD03B48864217D187421DD1424C3C48C046BB
:202A40007944097949008F4401023B60DEE7414CDCE70398FEF720FCD7E702290398D5D390
:202A6000032918D015E0874218D10120C00704402E48241810E000242046C04679440979FE
:202A800049008F4401020608C0E700200121CC07BCE72A4C00E02A4C2548B7E7B81B0015EB
:202AA0003C2803DD214C2248019918E0002B09D500253B22D243904204DA28462C460EE04B
:202AC000234C23E003980D462146029A00F0C4FF0122D2079143FEF7DFFB0C462946002957
:202AE00094D0022905D0012912D10121C9074C408CE7104A104B2146FFF7A5FE02460B4626
:202B00000B480E49FFF79AFE7FE70F4C0F487DE7084A094B2146FFF796FE054A084B72E76F
:202B20000000F07FFFFFFF7F000010C0FB21F93F182D4454075C143326A6A1BCFB21094071
:202B4000FB2109C0FB21E93F7CD902C0D221337F7CD90240FB21E9BFB0B588B006AB18804F
:202B600003AC6C20A0705248208002A82C2181705049018001AA762191704F4911806A46B2
:202B8000662191704D4911801A8803210A40A55C05AA1570069DED06AD0F655D5570069DC5
:202BA0002D06AD0F645D94701B880B40C45C04AB1C70069CE406A40F045D5C70069C2406E0
:202BC000A40F005D98703E4801F0BAFF002804D0FFE70020C043079066E03A48032104AA77
:202BE00001F0AEFF002804D0FFE70020C04307905AE0019805A9088001A88078887068464B
:202C0000807804A988700098088006A80088400700280AD5FFE705980121084305AA107054
:202C20000498084304A90870FFE706A80088800600280AD5FFE705A948780122104348705D
:202C400004A9487810434870FFE706A80088C00500280AD5FFE705A9887801221043887012
:202C600004A9887810438870FFE711208001032105AA01F065FF002804D0FFE70020C04397
:202C8000079011E01048032104AA01F059FF002804D0FFE70020C043079005E006980B49C6
:202CA000088100200790FFE7079808B0B0BDC0464CCD00000CC9000036560000264600003E
:202CC000260400002A040000310400005801202080B594B01390129111A90220087057481C
:202CE0002421405C002807D0FFE7002001F076FE69460120087003E0694600200870FFE731
:202D000003A802F00FFE06A802F00CFC01A802F019FB02A803F06EFC4848807A04A90870FC
:202D200005A804F013F900200890FFE7089801280EDCFFE7139812990022FDF7A9FE002874
:202D400001D1FFE704E0FFE70898401C0890EDE70898022803D1FFE7002007903EE0002010
:202D60000890FFE7089801280EDCFFE70EA80BA90122FDF78DFE002801D1FFE704E0FFE786
:202D80000898401C0890EDE70898022803D1FFE70020079022E012980BA901F029FA0AA969
:202DA000087013980EA900F0F1FA014609A80170002107910078002805D1FFE7079801211F
:202DC00008430790FFE70AA80078002805D1FFE70798022108430790FFE7FFE71749FF202E
:202DE00008724872C872164ACA81887208740120087303A8008801F013FC06A8007801F05E
:202E000017F901A8008801F0A3FB02A8008801F027F804A8007800F051FB05A8007801F02A
:202E200023FD68460078002804D0FFE7012001F0D5FDFFE7079814B080BDC046F0002020CA
:202E4000FFFF0000F0B585B00D4604465448014081420CD12046294622462B4601F076F873
:202E600022462B46FFF7EFFC04460D4693E04D4B002D75DD012004900105280D06D100208A
:202E8000002D05D11538E50A6405F9E72E460DE000220D4202D16D00521CFAE7801A401C53
:202EA0002026B71A2646FE402E4394403E4A8218481E304008430092D10703D0E10F40005C
:202EC00040186400E10F4000461800250498410501956400002911D04A19B71A304600DB18
:202EE0003846B24200DC5518B24202DC019A521801924000E20F86184908EAE75F1C00221F
:202F00001346002F23D0D019AE4216DD039300230028049A00D41A46C11902910029049984
:202F200000DA1946761B844200D2761E039B0A40AD18241ADB19029A03E002D18442E5D2ED
:202F40003546E00F71000E1864007F08D9E7344313D0581C019A12D001201840C31810E036
:202F600028461840204316D0002D83D504F078F9212101600E4D00240DE0019A01E0521C5F
:202F8000002350105908D20754180099490809050818064945182046294605B0F0BDC04607
:202FA0000000F07FFFFFFF7F01FCFFFF0000E03F0000F87F80B584B003A90020087002AB3B
:202FC0000193187068207521012203F00FFA494802F036FD01980078682804D0FFE7032064
:202FE00003F0ECFCFFE7FFF767F8002871D1FFE7782000F063FA002804D1FFE73D4802F02C
:203000001FFD03E003A901200870FFE7782001F02BFC002804D1FFE7374802F011FD03E091
:2030200003A901200870FFE7C82000F019FF002804D1FFE7314802F003FD03E003A9012077
:203040000870FFE703F02AFE002804D1FFE72C4802F0F6FC03E003A901200870FFE729483D
:2030600003F0F1F8FFF778FD002804D1FFE7264802F0E6FC03E003A901200870FFE7FF20B7
:203080007430FEF785FA002804D1FFE71F4802F0D7FC03E003A901200870FFE7C82001F022
:2030A00095FE002804D1FFE7194802F0C9FC03E003A901200870FFE702F03CF8012001F03C
:2030C0008DFC002804D1FFE7124802F0B9FCFFE703E0032003F072FCFFE703A80078002805
:2030E00006D0FFE702F0EEFB032003F067FCFFE704B080BD0B8200007B810000E4800000FC
:2031000060800000680120200A81000056810000C4810000A0810000F0B587B01D461646C3
:203120003024059004700027104619463A463B4602F00EFB0028019402D00120C00745405E
:203140000D9804900C9803903F4C304629463D4A234602F01BFB002809D00022304629468F
:203160003B4B00F079FC06460D467F1CEDE70598441C0022304629460692134602F0DEFA97
:20318000002811D1002230462946304B02F0E0FA002809D00022304629462D4B00F0D6FE93
:2031A00006460D467F1EE4E70398C01903903046294602F06BFE214602F0F4FC02942418A6
:2031C000C019049908600398471C012F1ADB3046294602F05BFE03F0CDFA02460B463046F5
:2031E0002946FFF72BFB0022194B00F0AFFE06460D4602F04BFE3030611C20707F1E0C46EB
:20320000E5D100E02146481E0278352A0DD3891E019C0A78521CD3B20A703A2B02D30C70A9
:20322000491EF6E7059A914204D006990170029807B0F0BD0699017004990868401C086015
:203240000598F5E70000C0FFFFFFDF410000F03F0000244080B588B00690069949480289C7
:203260009207120F8958039100894007002804D5FFE7039840420390FFE70699414802891F
:2032800052080C231A408958049100898006002804D5FFE7049840420490FFE70699394827
:2032A000028912090C231A40895805910089C005002804D5FFE7059840420590FFE70398FE
:2032C000C117314A00920023019303F031FB009A019B8900800F401803900498C11703F093
:2032E00027FB009A019B8900800F401804900598C11703F01DFB8900800F4018059003A842
:20330000C17802AA1170408850700398000A90700398D0703D200001042101F011FC002896
:2033200004D0FFE70020C043079028E003A8C17902AA1170C08850700498000A90700498B5
:20334000D070F5208000042101F0FAFB002804D0FFE70020C043079011E003A8C17A02AA6E
:203360001170408950700598000A90700598D0707B20C000042101F0E3FB0790FFE7079854
:2033800008B080BD5801202009E3CA0280B58AB008900791002005904348406800780D21BA
:2033A000032204AB03F040F8002803D0FFE70720099075E004A908781F2210400870487822
:2033C0001040487088781040887000200690FFE70698022861DCFFE7089806998A00805875
:2033E00007998958401AC1174840401A02F0C2FF8F21C90501F024FF0290069904A8405C7A
:2034000000282DD0FFE72A480390FFE7069A04A9885C401E88540006002806D0FFE70398C6
:20342000254901F0FBFD0390F0E70298039901F007FF204900F0BBFF019001980121C9076F
:2034400088431A49896902F0D3F9002807D0FFE7069801218140059808430590FFE717E0CE
:2034600002981249096902F0A5F9002808D1FFE702980E49496902F0BBF9002807D0FFE740
:20348000069801218140059808430590FFE7FFE7FFE70698401C06909AE705980990FFE74F
:2034A00009980AB080BDC046F0002020BC8000000000C841000080BF54E3853F80B584B056
:2034C000014602A8017000784006400F002804D0FFE701A9012008700DE002A80078002821
:2034E00004D0FFE701A90020087003E001A940200870FFE7FFE73C49486800780968897C7C
:20350000012201AB02F0AEFF002806D0FFE7364900208872C043039063E001A90878BF22DC
:203520001040314A10730020087002A800784006002806D4FFE701980421084301A908702A
:20354000FFE702A800788006002806D4FFE701980221084301A90870FFE702A80078C006FE
:20356000002806D4FFE701980121084301A90870FFE702A800780007002806D4FFE70198AB
:203580003821084301A90870FFE71749486800780968C97C012201AB02F064FF002806D01F
:2035A000FFE7114900208872C043039019E002A80078002809D0FFE702A80078082804D0F3
:2035C000FFE7002001F0B4FBFFE7029806498872002000900875322003F06EFB0098039076
:2035E000FFE7039804B080BDF000202010B58EB00CAC20800B910AA8028009A8038043483F
:203600002521405C002804D0FFE70020C0430D9079E00B98002804D1FFE70120C0430D9086
:2036200071E00020019008A90880FFE708A800880CA90988884248DAFFE70CA8008808A92C
:203640000988401A112803DBFFE71020009006E00CA8008808A90988401A0090FFE70098F6
:2036600007A9088008A8008809880B9A121801F067FA002804D0FFE70220C0430D9042E062
:2036800008A8008807A9098803AA01F003FA002804D0FFE70320C0430D9034E00B9808A909
:2036A0000988401807A90A8803A903F0D7F9002804D0FFE70420C0430D9024E0FFE7079940
:2036C0000898401808A90880B0E70AA8407802AB18700A9858700D49486800780968897E23
:2036E000022202F0BFFE002804D0FFE70520C0430D9008E005492522012088540998C884E9
:2037000000200D90FFE70D980EB010BDF0002020F0B5A1B0049305469068002801D50620B2
:2037200090600290039200243D4F2846224606913B4602F021F806990028264614D100268B
:20374000384F284632463B4602F00CF8069900280AD1002228460592134601F0EFFF069BE3
:2037600000282E461F4622D12F4D03F05EFD01F0EFFF002809D00022304639462B4B00F02E
:20378000E5FB06460F46641EEFE7284D03F04DFD01F0F2FF002807D003F047FD00F05CF941
:2037A00006460F46641CF1E735463B46059407A802990091019008A82A46FFF7ADFC044606
:2037C000079D022D0DD1059D6D1C204603F0ECFC2018401E0021017028460125049E039FCC
:2037E00002E0049E039F0598397B324602F088FABA6820462946334602F048FF204603F064
:20380000D3FC854203D138680007C20F00E0012220462946334601F02BFF21B0F0BDC046D6
:203820000000F07F0000F0FF0000F03F0000244010B58CB00AAC207009A8017008A802700C
:203840000793002106910078002804D1FFE70020C0430B9071E005A803F09FFC09A8017847
:203860003748019003F089FB0198364A20211160012103F0C3FAFFE7314803F0D5FB80067C
:20388000002801D4FFE7F7E70AA8017808A803782B48012202F05EFAFFE7294803F0AAF944
:2038A000002814D1FFE7264803F0C8FB03A90870069808A90978884208D2FFE70398079938
:2038C000069A88540698401C0690FFE7FFE7FFE71B48012103F0DAFA0028DED0FFE7FFE73C
:2038E000174803F087F9002814D1FFE7144803F0A5FB02A90870069808A90978884208D27D
:20390000FFE702980799069A88540698401C0690FFE7E5E70B4900200860094802F0EEFCC0
:20392000069808A90978884203D1FFE700200B9003E00120C0430B90FFE70B980CB010BDC4
:2039400000000F4014120F4080B586B0014604A801700078292804DBFFE70020C04305908E
:2039600075E004A8007800281DD1FFE70020029001F0DEF9029803AB18700720587035491B
:20398000486800780968897C022202F06BFD002804D0FFE70020C043059058E02D490020A3
:2039A0000875059053E0012001F0C2F903A92020087004A80078012807D1FFE703A90020BA
:2039C0004870052000F0C4FD20E004A80078052807DCFFE703A901204870052000F0B8FDF0
:2039E00013E004A80078142807DCFFE703A9022048700A2000F0ACFD06E003A903204870F5
:203A0000142000F0A5FDFFE7FFE7FFE703AB58788001C01D58700F49486800780968897C94
:203A2000022202F01FFD002804D0FFE70020C04305900CE0074A082090720020019010731F
:203A40000121117500F010FF01980590FFE7059806B080BDF0002020FCB40C005C40E40FA0
:203A6000E40710B41D032D0B56006D415F007F0D73D001246405254307242402FF34A742AA
:203A800061D00B031B0B42005B414800400D64D001246405234307242402FF34A04252D09E
:203AA000C01B002100273624AB4200D1B24204D37F414941921BAB4101E07F414941641E70
:203AC00006D0002B01D1002A02D052005B41EBE7202C07D2162C0AD33900A7402026361B5C
:203AE000F1400BE0203C3900A140002706E0A1402026361B3D00F5402943A740012464055C
:203B0000214202D17F004941401E00247F1C61410124A405214202D0401CA14301E0640817
:203B2000A14303242402FF34001916DD2419A04209D8CC074908000501437808204310BCF9
:203B40002143FCBC704702BC0020C90F0902FF21C900C91D0905FCBC70470021002001B093
:203B6000FCBC704780B58CB00B9001A8009001F0A9FB00980088C0030021039102900B992E
:203B8000394802899207120F8958089100894007002804D5FFE7089840420890FFE70B99EA
:203BA0003148028952080C231A408958099100898006002804D5FFE7099840420990FFE70B
:203BC0000B992948028912090C231A4089580A910089C005002804D5FFE70A9840420A9032
:203BE000FFE70898C117029A039B02F0A1FE8900800F401808900998C117029A039B02F0EF
:203C000097FE8900800F401809900A98C117029A039B02F08DFE8900800F40180A9008A81B
:203C2000C17805AA1170418851700899090A91700899D170C1791171C18851710999090A7E
:203C400091710999D171C17A1172408950720A98000A90720A98D072A52080000C2100F041
:203C60006FFF0CB080BDC0465801202080B586B004AB1880039102923D482421405C0028D6
:203C800004D1FFE70020C04305906EE03848807A002804D1FFE70020C043059065E034498C
:203CA000486800780968897A022201AB02F0BCFB002804D0FFE70020C043059055E0019887
:203CC000000201A94978411868460180008804A90988884206DAFFE7029900200870C04363
:203CE000059042E068460088214949684988490888421DDDFFE71E49486800780968497C2B
:203D0000012201AB02F090FB002804D0FFE70020C043059029E001A80078C006002806D5CA
:203D2000FFE7FEF7B9F80120C04305901DE0FFE70F49486800780968C97A04AA1278039B51
:203D400002F072FB002804D0FFE70020C04305900BE06846008804A9098802F0F5F9401ECD
:203D60000299087000200590FFE7059806B080BDF0002020B0B588B0069036484068007804
:203D80000D21042205AB02F04FFB002803D0FFE7072007905BE005AA1078E0231840C008AF
:203DA000D178302421400909401804A9087050781840C008D4780C252C40A4080019487028
:203DC00090781840C008D27803231A408018887003A900200870FFE703A80078022833DCDB
:203DE000FFE703A8017804A8405C002807D1FFE7069903A800788200002088501FE00699B1
:203E000003A80078820014488850FFE703A8027804A9885C401E8854000600280ED0FFE701
:203E20000698029003A909788900019140580B4901F0F4F8019A02998850E7E7FFE70398E4
:203E4000401C03A90870C7E700200790FFE7079808B0B0BDF00020207B14AE3E1D5A843FEE
:203E600080B584B002A908803648807A002804D1FFE70020C043039061E032482421405CF9
:203E8000002804D0FFE70020C043039057E02D48007D002815D0FFE702A8008800280CD038
:203EA000FFE702A80088282807DCFFE702A80078FFF74AFD0020039041E00020FFF744FD47
:203EC000FFE702A80088032804DCFFE702A9042008800BE002A800881B49884205DBFFE771
:203EE0007D20C00002A90880FFE7FFE702A801887D20C00002F028F9401E01AB18701149D7
:203F00004868007809684978012202F0ABFA002804D0FFE70020C043039010E001A80078E4
:203F2000411C7D20C00002F00FF901460548C181C089400800F00CFB00200390FFE703983B
:203F400004B080BDF0002020E9030000FCB50C005C40E40FE40710B4DD02540D2543D602D9
:203F60005F007F0D60D00124E407254307242402FF34A74250D0CB02440D2343C202480091
:203F8000400D51D00124E407234307242402FF34A04241D0C01901B41800290002F0BCFA4F
:203FA0000F0001B41800310002F0B6FA03000C001000310002F0B0FA06001000290002F035
:203FC000ABFA05007618002202BC01BC55415141A419554151418024A4005B195141FF189A
:203FE000514100D564003F19514102D47F00494100E0401C03242402FF34001B14DD241928
:20400000A04209D80305F80A4C0520434900090B194310BC2143FCBD0020FF21C900C91D8E
:20402000090510BC2143FCBD0021002001B0FCBD80B584B002A908703548807A002804D1DE
:20404000FFE70020C04303905FE002A80078801E00900E2832D80098810001A040588746D6
:204060009D400000BD400000A5400000BD400000BD400000BD400000AD400000BD400000A0
:20408000BD400000BD400000BD400000BD400000BD400000BD400000B540000001A9002073
:2040A00008700FE001A9082008700BE001A91020087007E001A91820087003E00020C043CB
:2040C000039022E01248407A01A90978C908884203D1FFE70020039017E00D49486800788F
:2040E0000968C979012201AB02F0BCF9002804D0FFE70020C043039007E001A80078C0082F
:204100000349487200200390FFE7039804B080BDF0002020F0B584B03049314A0125AC03A2
:2041200016682B0203939E4316600E68264205D10E68264202D10E682642F6D06C02467EAC
:204140009769AF432E40BD1995612025455DD6690327BE433D407519D561224D2E6807276E
:20416000374005262E60466A33681362736853622F60C3695B065B0CD5697F263602B54329
:20418000EB18D361E8C8009707680197476802971B071B0B2D03ADB2ED1833071B0D007A9A
:2041A000009E35431D43019B1D43029B1D43054390690D4B03400D482840C01890611068B6
:2041C000039B184310600868204205D10868204202D108682042F6D004B0F0BD04020B40DF
:2041E00008010B40001340408D00F0FF72FF0F0080B58AB00990089100200090069003A84A
:20420000FFF7B8FD00980790FFE70798022856DCFFE7099807998A00805808998958401A7E
:20422000C1174840401A02F0A5F88F21C90501F007F802900798810003A84058002101F0C0
:20424000AFFA00281ED1FFE7029807998A0003A9895800F0F5FF1C4900F0A9F80190019863
:204260000121C90788431749496A01F0C1FA002807D0FFE7079801218140069808430690DC
:20428000FFE717E002980F49C96901F093FA002808D1FFE702980B49096A01F0A9FA00289B
:2042A00007D0FFE7079801218140069808430690FFE7FFE7FFE70798401C0790A5E70698D2
:2042C0000AB080BDBC800000000080BFF8B515462A4E0A0D771C3A40294B9A4213D00C4643
:2042E000002A18D10122D2079443044344D00022244BFFF72BFE0C4623498D4208DC234AEF
:20430000234B214636E002460B46FEF79CFAF8BD220D3A40363A5119B1420ADD02F0A0FFEB
:20432000222101600120C00704401D4821180020F8BD012904DB174A144009052143F8BD55
:204340003522D24391420CDC02F08AFF2221016012488542E6DA0120C00704400020214683
:20436000F8BD0C4A144009051B225205891821430022094BFFF7EAFDF8BDC046FE07000024
:20438000FF07000000005043AF3CFFFF59F3F8C21F6EA501FFFF0F800000903C51C30000F5
:2043A0000000F07FFCB40127FF07794002E0FCB40127FF070C024D002D0E03D1002C52D17E
:2043C000FCBC70473C43FF2D50D0A408002900D56442020243001B0E04D1002A43D10800C8
:2043E000FCBC70473A43FF2B41D09208002800D552425E1B04D5170022003C0076422B00C1
:20440000192E06D527003741D2191C27F71B7F42BC40002A27D002D55242012700E0002723
:20442000013B5200FCD51500802635400FD01500202635402C43803208D215004026354053
:204440002C4304D101263602B24300E05B1C5200023308DDFF2B0BD2500ADB051843FF075F
:204460003843FCBC70470020FCBC70470800C70FFF07FF20C0053843FCBC704780B584B0A8
:2044800002A9087031482421405C002821D0FFE702A80078002804D0FFE701A90220087058
:2044A00003E001A900200870FFE72849486800780968C97B012201AB01F0D4FF002804D014
:2044C000FFE70020C04303903DE001981F49487436E01E48807A002804D1FFE70020C043EA
:2044E000039030E002A80078002808D0FFE71748407C002803D0FFE70020039023E002A8B5
:204500000078002804D0FFE701A90120087003E001A900200870FFE70C4948680078096805
:20452000C97B012201AB01F09DFF002804D0FFE70020C043039006E0019804494874FFE7D5
:2045400000200390FFE7039804B080BDF000202080B584B002A908803048807A002804D1FB
:20456000FFE70020C043039054E002A80088BC2804DBFFE701A9012008702BE002A8008810
:20458000622804DBFFE701A90220087021E002A800882A2804DBFFE701A90320087017E002
:2045A00002A80088142804DBFFE701A9042008700DE002A800880A2804DBFFE701A905209D
:2045C000087003E001A906200870FFE7FFE7FFE7FFE7FFE71148C07A01A90978884203D15E
:2045E000FFE70020039015E00C494868007809688978012201AB01F035FF002804D0FFE768
:204600000020C043039005E001980449C87200200390FFE7039804B080BDC046F000202084
:2046200080B584B002A908802D48807A002804D1FFE70020C04303904EE002A800880090E6
:20464000FA2812D0FFE700987D218900884210D0FFE700987D21C90088420ED0FFE70098FC
:204660007D21090188420CD00FE001A9002008700FE001A9082008700BE001A91020087045
:2046800007E001A91820087003E00020C043039022E01348007A01A90978C908884203D1CF
:2046A000FFE70020039017E00D494868007809688979012201AB01F0D5FE002804D0FFE704
:2046C0000020C043039007E001A80078C0080449087200200390FFE7039804B080BDC04662
:2046E000F000202010B58CB00AAC207009A8017008A80270079301780691079905910078A7
:20470000002803D1FFE700200B9048E004A802F044FD09A801782348019002F02EFC01981A
:20472000022102F06BFBFFE71E4802F07DFC8006002801D4FFE7F7E70AA8017808A80078AD
:20474000431C1848002201F005FBFFE7059906A80288144801F016F9029002990698401A4A
:204760000690029905984018059003A802F015FD039804990A31884206D3FFE701F0A2F848
:204780000020C0430B900AE0FFE70648022102F07DFB0028DAD0FFE700200B90FFE70B98B4
:2047A0000CB010BD00000F4080B586B02748802102F0DCFA059005A800780006002843D5DE
:2047C000FFE7FDF721F82248006822490491C8612148006888612148006808620021029142
:2047E0001F480190405E01F0C5FD049A0146019811600221405E01F0BDFD049A0146019897
:2048000051600421405E01F0B5FD0299049A906014480390405E01F0ADFD0299049B0246AE
:204820000398DA60405E01F0A5FD0299049B024603981A61405E01F09DFD04994861034820
:20484000802102F067F9FFE706B080BD00000A40B80120201C012020B4012020BC012020FA
:20486000AC012020A601202080B584B002A90870002000900878FE2210400870284824210B
:20488000405C002803D0FFE70020039045E02448807A002804D1FFE70020C04303903CE0A8
:2048A0001F48017C01AA11700299827A11400174007C02A90978884204D0FFE70020C0433C
:2048C000009002E000200090FFE702A80078002805D1FFE71248007D002804D0FFE70120F0
:2048E000FFF7CCFD03E00020FFF7C8FDFFE702A8007800280DD0FFE7FDF7CEFA002807D08D
:20490000FFE70198064908740020C043039004E0FFE7FFE700980390FFE7039804B080BD4A
:20492000F0002020B0B58AB014460D4601460E9A08A8017007A90D7006AD2C7005AC23702B
:2049400004AB1A70244A12681469007840000978C822009203AA0123A047002833D1FFE73A
:2049600006A80578691CFF231A468A4005A90C78641BE41DE3401A4302AB1A700A78082127
:20498000891A049A8A4004A90A7002780720821A0878D040087002990398084003AA1070F5
:2049A00004990398084310700B480068C46808A80078400007A90978C82300930123A047EB
:2049C00009A9087003E009A901200870FFE709A800780AB0B0BDC0469001202080B588B005
:2049E00006A908702A482422805C0978884203D1FFE70020079047E006A8007800282AD0D1
:204A0000FFE723482521405C002804D1FFE70020C043079038E000200290FFF72FFD029840
:204A2000FDF73CFE1A480390C08CFFF719FA0299039805AB19704068007823210122049272
:204A400001F010FD0399049824228854FFF716FDFDF722FA15E000200190FFF70FFD0C48E9
:204A60000090017C05AB1970406800782321012201F0F8FC0099019824228854FDF70CFA36
:204A8000FFE700200790FFE7079808B080BDC046F000202080B586B004AB188003A80180EB
:204AA00002920298002804D1FFE70020C043059040E02248807A002804D1FFE70120C043A2
:204AC000059037E004A8417801A8017004994170407803A909884018184949684989884262
:204AE00004DDFFE70220C043059023E01349486800780968097E022201AB01F0B3FC00281E
:204B000004D0FFE70320C043059013E00B49486800780968497D03AA1278029B01F084FC35
:204B2000002804D0FFE70420C043059002E000200590FFE7059806B080BDC046F000202094
:204B400080B586B004AB188003A8018002920298002804D1FFE70020C043059040E0224824
:204B6000807A002804D1FFE70020C043059037E004A8417801A8017004994170407803A958
:204B800009884018184949684989884204DDFFE70020C043059023E0134948680078096807
:204BA000097E022201AB01F05DFC002804D0FFE70020C043059013E00B49486800780968DA
:204BC000497D03AA1278029B01F04CFC002804D0FFE70020C043059002E000200590FFE7EB
:204BE000059806B080BDC046F0002020F0B58B4200D1824204D90B0002000021002040E09D
:204C0000002B00D1002A0CD10B00020000210020002B00D1002A01D0C943C04300F037F81E
:204C20002FE01C0015000B0002000CB4002126002F00FF19764102D2491C4029F9D1002096
:204C40001E001700FF19764102D2401C4028F9D10E1A21002800320001F04CFF0C000500FE
:204C60000CBC00200021A34200D1AA4201D3521BA341404149416D08E7073D436408761E76
:204C8000F1D5059F002F01D03A607B60F0BD704780B58AB0002304930193009303210291CA
:204CA00018461A4601F00CFB0299049B01930093012007901A4601F003FB049801F054FFF6
:204CC000079801F051FF14200221039101F068FF0399152001F062FE192002F05FF8049B6E
:204CE0000798009342040D20194601F069FC0798C1030D48059001F061FF059880210691E7
:204D000001F016FF0598069901F03CFF0798410209910648089002F07CF90898099902F028
:204D20000DF80AB080BDC04600000A4000200A4080B584B002A9087023482322805C097824
:204D4000884203D1FFE7002003903AE002A80078002804D0FFE701A93020087003E001A9FF
:204D600000200870FFE71848807C002806D0FFE701980221084301A90870FFE712482221C9
:204D8000405C002806D0FFE701988021084301A90870FFE70C49486800780968097D01226F
:204DA00001AB01F05FFB002804D0FFE70020C043039006E0029804492322885400200390C3
:204DC000FFE7039804B080BDF000202080B588B0014606A801801D4905911D4904911D49F1
:204DE00003910088C92804DBFFE70020C043079029E006A80188C82001F0A6F9411E02A866
:204E0000018040786A4610700298507012480221FFF796FE002804D0FFE70020C04307902C
:204E200011E00E480C2103AAFFF78AFE002804D0FFE70020C043079005E00698084988815A
:204E400000200790FFE7079808B080BDBBAFDFDFAAF1DFDFFEF2ABC416020000C10A00005E
:204E60005801202082B00190019800214056012804DBFFE76946002008803AE0019800216D
:204E80004056002804D5FFE76946042008802FE0019801214056012804DBFFE7694601201C
:204EA000088024E0019801214056002804D5FFE769460520088019E001980221405601285E
:204EC00004DBFFE76946022008800EE0019802214056002804D5FFE769460620088003E04D
:204EE000694607200880FFE7FFE7FFE7FFE7FFE7FFE76846008802B07047704780B586B02F
:204F0000059005981E49884203D3FFE71D480590FFE7059950204843059000200090049020
:204F200002F058F9014600980391029001A90870FFE702F04FF9029002980399884204D978
:204F4000FFE701A901200870FFE701A80078002807D0FFE703980299401A0B49401804906C
:204F600004E003980299401A0490FFE704980599884201D3FFE700E0DBE706B080BDC046EA
:204F80003433030033330300FFFFFF00B0B58CB000200B9001F074FE1C480A900A9800687A
:204FA00080470F2001F0D0FB012001F0CDFB01F0ABF8FDF7FFFFFFE715480590C06901F0ED
:204FC000E3F80246059806920791806901F0DCF80246059808920991006A01F0D5F8069A52
:204FE000079B044608980D4609990395029401910090084800F024FD01204102064801F0DC
:20500000F1FE642001F0A6FCD6E7C046400120201C012020E881000000200A40FCB401273E
:20502000FF0706004E4001D4002600E03E00020243001B0E30D03A43FF2B30D00C024D004B
:205040002D0E29D03C43FF2D29D05B194240504042404C4061404C4000B501F05DFA20BCDE
:20506000AE464240504042404C4061404C4025001400002C01D46400013B803401D3013359
:2050800064087E3B08DDFF2B09D2BC43200ADB0518433043FCBC70470020FCBC7047FF200D
:2050A000C0053043FCBC704780B586B005900598C078C021084003A908700598C0783F21F2
:2050C000084004A9087005984078C007002819D0FFE704A80178C90802AA1170007807218D
:2050E0000840401C01A9087011480068002808D0FFE70F48026802A8007801A9097890475E
:20510000FFE7FFE705984078000700280DD5FFE707484068002807D0FFE70548416803A8FA
:20512000007880098847FFE7FFE7002006B080BD5801202080B58AB006A803A9FDF7C8FDA5
:2051400009900998072836D1FFE702A800F024FA069801F00FF90299FFF760FF01F0FAF9D6
:205160000690079801F006F90299FFF757FF01F0F1F90790089801F0FDF80299FFF74EFF4D
:2051800001F0E8F9089006A8FEF764F801A8009000F098F800980188039A5143039101887E
:2051A000049A51430491008805994843059003A8FEF7D8FCFFE70AB080BD000010B588B094
:2051C0000C46014607A8017006A90C7005AC227004AA02921370194A1268146900784000D1
:2051E0000978C822009203AA0123A04702980078002809D0FFE703A8007805A90A7801218C
:2052000091400843019008E003A8007805A90A780121914088430190FFE7019803AA1070AB
:2052200006480068C46807A80078400006A90978C82300930123A04708B010BD9001202016
:20524000FCB40127FF0706004E40F60FF607020243001B0E2DD03A43FF2B2DD00C024D006E
:205260002D0E26D03C43FF2D26D05B1B0020202164085208A2424041A24200D3121B01393C
:2052800004D0002A01D05200F4D18840384201D14000013B803001D3013300E040007F330E
:2052A00007DDFF2B08D2400ADB0518433043FCBC70470020FCBC7047FF20C0053043FCBC01
:2052C0007047000083B001901C48407A009003281FD80098810001A040588746ED52000025
:2052E000F7520000FF52000009530000019901208003088011E00199114808800DE00199FF
:2053000001200003088008E001990120C002088003E00020C04302900CE00848C07C0028BC
:2053200005D0FFE70199088840080880FFE700200290FFE7029803B07047C046F000202000
:205340009C1F000082B001901C48C07A009007282DD80098810001A040588746AD5300004E
:205360007D530000855300008D530000955300009D530000A5530000AD5300000199BC205F
:20538000088018E001996220088014E001992A20088010E00199142008800CE001990A2093
:2053A000088008E001990520088004E0FFE7019900200880FFE7002002B07047F00020208B
:2053C000F8B5451C00780023082B32D02F78C2070CD16A780F241440E41C122C0BD10224F9
:2053E0002E57F4B2002E08D4EE1C0EE06D1C4A1C0F7011461AE0AE1C08E02E1DED780095CA
:205400007F252C40009DED012C1912343D0112095219094DAA420ED0D243002C05D08D5C83
:205420004F1C0D70641E3946F7E7354640085B1CCAE72846C5E7F8BDFF0F0000FEB5029395
:205440000F46194D0024E143184E00973740019043422B46BB4101D20C4623E00846029941
:205460000E405342B54101D204461BE0134601990B433E431E43029D009E13D02B46334014
:2054800004D401998B1A3346AB4103E00199531A2B46B341044605DB51406E400E43701EF9
:2054A000864134462046FEBD0000F07FFFFFFF7F0CB41B4B4A00D21A1BD2000D0A031043E9
:2054C00001221202801802D3400812038918400A002902D50122D20710434900490D382298
:2054E0001201891A0CD4FF290DD2C90508430CBC7047DB431A40024305D0D8430CBC70474B
:2055000000200CBC7047C90FC907FF20C00508430CBC7047C046C046C046C046C046C04672
:205520000000E0FF83B001901A48407A009003281CD80098810001A0405887464D5500003C
:20554000555500005D550000655500000199022008700FE00199042008700BE0019908202F
:20556000087007E001991020087003E00020C04302900CE00748C07C002805D0FFE70199FE
:20558000087840000870FFE700200290FFE7029803B07047F000202083B001901548007A86
:2055A000009003281CD80098810001A040588746C1550000C9550000D1550000D955000095
:2055C0000199104808600FE001990D4808600BE001990A48086007E001990748086003E0D1
:2055E0000020C043029002E000200290FFE7029803B07047F0002020333383413333034273
:205600000000834200000343F8B50446164F174D0E462E400120009464423C46B4411AD33E
:205620001D405442AF4116D31046009C20433543054311D00020C0431C460C400ED4009C59
:20564000A41A0C469C4106DB0098504059400143481E81410846F8BD0020F8BD009C141BAC
:205660001C468C41F0DAF6E70000F07FFFFFFF7FF8B51C4617460E46054601F095FD0021BA
:20568000012E03DBB04201DBA919491E002F04D02268531E23602E2313703246824206DD92
:2056A00023685F1E276030271F70521EF6E7B04200DB3046012808DBA9420BD30878226806
:2056C000531E23601070491EF6E72068411E216030210170F8BD80B582B0014601A801706B
:2056E0006A46002111700078C007002806D0FFE700983021084369460870FFE701A80078D3
:205700008007002806D5FFE700980C21084369460870FFE701A800784007002806D5FFE7AB
:2057200000980321084369460870FFE72920C00001216A46FFF704FA02B080BD10B5FFF7DC
:2057400063FF002801D0002010BD012010BDC04610B5FFF759FF002801DB002010BD0120E8
:2057600010BDC04610B5FFF74FFF002801DD002010BD012010BDC04610B5FFF75FFE002826
:2057800001DA002010BD012010BDC04610B5FFF755FE002801DC002010BD012010BD00005F
:2057A00010B500F09BFE002801D0002010BD012010BDC04610B500F091FE002801DB002059
:2057C00010BD012010BDC04610B500F087FE002801DD002010BD012010BDC04610B500F032
:2057E000E7FD002801DA002010BD012010BDC04610B500F0DDFD002801DC002010BD01203F
:2058000010BD000080B588B0014606A80170007800280ED0FFE703AA5D2010720F480490ED
:205820000F4803909720C0000921FFF789F907900DE06A46C720107206480190064800900B
:205840009720C0000921FFF77BF90790FFE7079808B080BDB088C3C5B8AAAAAAB4980D3528
:20586000B8AAB38D80B584B003900291039801F0A2FC6946088001A900200880FFE701A8B5
:20588000008869460988884215DAFFE7FFE70C4801F044FB002801D0FFE7F8E7039801A934
:2058A0000988415C064801F0B9F8FFE70198401C01A90880E3E76846008804B080BDC046C6
:2058C0000080104080B584B003A90020087000F0F9FBFFE7124801900221009101F08FFB67
:2058E0000120029001F036F80099019801F06EFA029801F02FF80198029901F033FB00281E
:2059000001D0FFE708E0FFE70398401C03A90870C0B26428DEDBFFE700F0C8F904B080BDA8
:2059200000000A4082B001901548007A009003281FD80098810001A0405887464D5900000C
:20594000555900005F590000695900000199FA20088012E001997D20800008800DE001992B
:205960007D20C000088008E001997D200001088003E0019900200880FFE7002002B0704706
:20598000F0002020F0B581B0002A22D091235B01C3180F200402901E0090561E0020DF69AB
:2059A00027421BD00F5C1F60864210D0DF69274211D00F187D781D60009D854207D0DD6955
:2059C00025420AD0BD781D60C01C8242E7D1104604E0002002E0401C00E0801C80B201B085
:2059E000F0BD000070B514460F4D0B462B40002222600E4EB34215D81E46064312D01E0DC7
:205A000007D100220A4BFEF7A1FA0D403522D2432B461B0D9A18074BD2182260064A0A404B
:205A20000649511870BDC046FFFFFF7FFFFFEF7F0000504302FCFFFFFFFF0F800000E03F58
:205A400083B01EB505AC0EC401900F48006880470E4A9069401C0DD005A902910C480090F7
:205A600018320C4B01A8FAF72BFB04460A480068804704E00848006880470020C44320460A
:205A80001EBC02BC03B00847780120200000202079720000717200007C01202010B588B0EB
:205AA0000091014600980A9C06AC218005A90880049203AA138002AB0193012018700698E9
:205AC000400809781278049BC0B2FEF70BFE0146019801700078002804D1FFE707A90020E8
:205AE000087003E007A901200870FFE707A8007808B010BD80B582B012491348019000F0D2
:205B000004FF01980321490200F0ECFE019801F081F9019801F09CFA0198092101F0DAF9F5
:205B200001980021009100F08DFE0099019800F075FE019801F086F9019801F077F902B055
:205B400080BDC0469280000000000F4080B584B01048009001F02EF90F48019001F02AF93C
:205B60000E48029001F0AAF90D48039001F0E2F9009801F0EFF8019801F0ECF8029801F08C
:205B800079F9039801F0BEF9102001F029FB04B080BDC04600000A4000200A4000000F4011
:205BA00000801040F0B587B00191064602AD0020E874123537460A243846214600F04AF827
:205BC0004443391BCA175140891A3031297009376D1E122F0746EED8002E01D46D1C01E04F
:205BE0002D20287002A8441B224614320198294601F03AFB1334204607B0F0BDF0B5FFB076
:205C000086B01C4615460246A868002801D50620A8602368039304AB0090019305A80B461B
:205C2000FDF77AFA0646049FAA683946234600F02DFD20680399814201D0012202E02868AC
:205C40000007C20F304639462346FFF711FD7FB006B0F0BD1CB5002922D04C08002900D53A
:205C6000494242105440002800D5404200230A00904201D95200FBE790425B41904200D314
:205C8000801A914201D25208F6E71900002C00D54042640000D549420200080011001CBD39
:205CA00001000020FCF793FE1CBD000080B586B01248049001F0F6F800230593019300934C
:205CC0000321029118461A4600F0DCFA0299059B01930093012003901A4600F0D3FA0598B9
:205CE00000F034FF039800F031FF049801F0B6F8FFF700FF059806B080BDC04600000F40B1
:205D00007CB515460C460646C01731464140081A009200210A226423FAF768FE30460930FC
:205D2000122808D8DF202040502804D02868411E296030210170002E01D42B2000E02D20E9
:205D400029684A1E2A6008702868411E296004707CBD000010B586B001920246019805921D
:205D6000049103AA107002A803800598094940180499490012781143074A00F027FD059827
:205D80000649401802990904C91D054A00F01EFD06B010BD10120000FF07000014120000A3
:205DA0000700FF0F10B588B00191014601980A9C06AC218005A90880049203AA1380012039
:205DC00002900698400809781278049BC0B2FDF72FFD02900298002804D1FFE707A9002030
:205DE000087003E007A901200870FFE707A8007808B010BD80B584B00390029101920398B0
:205E00000B49401802990B4A00F0F4FC03980A49401801993F2200F0EDFC0399074A88185F
:205E200089580122114000F0E5FC04B080BDC04610110000FFFF00001411000004110000EC
:205E400080B582B00020019001F050F80120400200F0C4FD019800F0DBFE01F077F901F029
:205E600001F90948FEF756F9102000F0DFFE01F003F901F073F9019800F0C0FD019800F07D
:205E8000BBF802B080BDC046948000000CB54A00520D03231B02FF33D21A13D31F239A1A9F
:205EA00012D98E46C9020123DB071943D1400B2A02D21532D04001437346002B00D54942FD
:205EC00008000CBD00200CBD0B000120C007002B00D401380CBD000070B511221302C218CD
:205EE000C4580125AC43C4500C888D7825438C882C43C558084E2E40084D2540AC19C45065
:205F00008879CB790343087A184351687E23994318400818506070BDE798FDFF1867000094
:205F200080B582B00D490E48019001F0F4F801980C49FFF7D1FF0198002100F09FFD01984D
:205F400015212D22FFF756FF01980121890200F07BFE019801F01CF802B080BD948200001F
:205F600000801040C67E000080B582B0014601A80170007800280AD0FFE76946202008707E
:205F800028204870302088703820C87002E006480090FFE7054804216A46FEF7D1FDFBF7AC
:205FA0007BFF02B080BDC046A3A3A3A39E0A000080B582B0014601A80170007800280AD0FC
:205FC000FFE76946C0200870C2204870C4208870C620C87002E006480090FFE70548042128
:205FE0006A46FEF7ADFDFBF757FF02B080BDC0468B8B8B8B980A000010B50E490E4A0123AF
:206000005C0590600868204205D10868204202D108682042F6D010681B040343136008688A
:20602000C00605D40868C00602D40868C006F6D510BDC04604020B4004010B4080B586B0D5
:20604000059004A80190018005987D21C900FFF701FE0146019800884843029002A8C1788C
:2060600003AA1170408850700298000A90700298D070572080000421FEF762FD06B080BD89
:2060800080B582B0014601A801700078002804DCFFE701A90120087009E001A80078052858
:2060A00004DBFFE701A904200870FFE7FFE70198401E6A461070FF2050300121FEF740FDEF
:2060C00002B080BD80B584B00D4800F0EBFE012000F058FE002303930093184619461A466A
:2060E00000F054FA074801900221029100F087FF0198029900F016FE039804B080BDC0468C
:2061000000000F4000000A4080B582B000F096FC682804D0FFE7032000F050FCFFE702204C
:2061200000F0BBFC032000F0D6FC0020019000F0C3FC019800F0E8FD019800F0D8FD01980E
:2061400000F0C8FD02B080BD1CB50A0017D000230124E407A04200D20400944201D95200EC
:20616000FBE790425B41904200D3801A914201D25208F6E719000200080011001CBD0100A5
:206180000020FCF724FC1CBD08B443001B0E0FD0FF2B11D00721C9015B18C10FC9020B4393
:2061A000010048074902090B1B05194308BC70470021002008BC704701004002C90DC9009B
:2061C000C91D090508BC704710B50E4902788B185B78401CDB06F9D400212D2A04D02B2A99
:2061E00002D0401E134600E00378303B092B04D80A244C431919401CF6E72D2A00D1494265
:20620000084610BDD07E0000F0B585B00A9CCD17DE1769406840401BA94173407240921B14
:20622000B3416E4002AF0097FEF7E0FC71407040801BB141029A039B6B406A40521BAB41CD
:206240000CC405B0F0BD80B584B003900398FEF709FE02A9019108800398C01CFEF702FE48
:206260000199C2000298104308800398801DFEF7F9FD014601988A010299114301800088C7
:2062800004B080BD10B584B0079C069C039002910192009302980199084300990843069981
:2062A0000843079908430449084303998900034A885004B010BDC0468000040004804240B5
:2062C00010B584B0079C069C03900291019200930298019908430099084306990843079947
:2062E00008430449084303998900034A885004B010BDC046800004000480424070B50D4DE1
:2063000041190F2212020123DC02465980231E43465148681040A04207D048681040A04207
:2063200003D048681040A042F3D108689843086070BDC04638120000B0B586B0019314462B
:20634000019A0B46014605A8017004A90B7003AB1C700292064A1268146900784000097876
:20636000029A1B78C8250095A04706B0B0BDC0469001202006B49E22002802D404D106BC7C
:206380007047414204D400E00100013A4900FCD5803101D3013200E04900490AD205114356
:2063A000002802D50122D2071143080006BC704740B542004B005E08164301D006004E4067
:2063C00000D4D01A04D20120C90F06D1404204E003D90120C90F00D04042FF263606B24277
:2063E00000D8B34201D90120404240BDB0B586B001931446019A0B46014605A8017004A9CF
:206400000B7003AB1C700292064A12681469007840000978029A1B78C8250095A04706B065
:20642000B0BDC04690012020B0B586B001931446019A0B46014605A8017004A90B7003AB68
:206440001C700292064A12681469007840000978029A1B78C8250095A04706B0B0BDC046DB
:2064600094012020B0B586B001931446019A0B46014605A8017004A90B7003AB1C70029277
:20648000064A1268D468007840000978029A1B78C8250095A04706B0B0BDC0469401202027
:2064A00070B50A480A4C84420CD00A4D0A4EB54208D02A686968501C12789200A258904733
:2064C0000835F4E700BF00BF70BDC04614830000088300001C8300002C83000040B542004C
:2064E0004B005E08164301D006004E4000D4D01A04D20120C90F06D1404204E003D9012066
:20650000C90F00D04042FF263606B24200D8B34200D9012040BD0000FCB4020C0B0CFF2440
:206520002402FF34204021400C00444315005D4306005E430F005743320C3B0CA818C0188C
:2065400032043B040025A1186841C9186841FCBC7047000006B54100090E7F390DD41F2259
:20656000511A0CD9864600020122D2071043C8407246002A00D5404206BD002006BD0200C5
:206580000120C007002A00D4401E06BD10B584B0069C03900291019200930298019908438E
:2065A00000990843069908430349084303998900024A885004B010BD810004000480424021
:2065C00010B584B0069C0390029101920093029801990843009908430699084303490843F0
:2065E00003998900024A885004B010BD810004000480424082B000900A482421405C002829
:2066000004D0FFE70020C043019007E00548C08900990880FFE700200190FFE7019802B0A6
:206620007047C046F000202080B584B0014603A80190018000880521FFF786FD01460198F9
:206640000180407802AA107003985070AD2040000221FEF775FA04B080BD80B584B0014645
:2066600003A80190018000880521FFF76DFD014601980180407802AA1070039850702B2064
:20668000C0000221FEF75CFA04B080BDF8B51C4615460646571800F087FD711E012D0CDB9E
:2066A0003022012F02DB874200DCCA5D23685E1E26601A707F1E6D1EF0E7F8BD80B584B07B
:2066C000014603A8018000880521FFF73DFD014602A80180407801AA107002985070EF20AB
:2066E00040000221FEF72CFA04B080BD80B584B0014603A8018000880521FFF725FD014642
:2067000002A80180407801AA107002985070ED2040000221FEF714FA04B080BD80B582B046
:20672000084800F0EFFC0B2809D1FFE70548019000F0ACFC0146019800F035FC00E0FFE7FE
:2067400002B080BD0080104081B001466846017000214056002809D4FFE7684601781F20DB
:2067600001400120884002490860FFE701B0704700E100E004B40422002802D1002104BC73
:20678000704701D50832404212021F320100521E4900FCD30805090B1205114304BC7047BF
:2067A00080B582B001900091FFE7074800F0B6FB002801D0FFE7F8E701A80178024800F060
:2067C0002DF9019802B080BD0080104084B0039002910192039800680090009801998843BE
:2067E000009000980299019A114008430399086004B0704784B00390029101920398006840
:206800000090009801998843009000980299019A114008430399086004B0704780B584B019
:20682000019101460198039102A908800398044A8018098807221202FFF7DCFF04B080BD0E
:206840003812000080B584B0019101460198039102A908700398044A801809780722FFF73B
:20686000C9FF04B080BDC0463812000081B000900549042008600098401E0449086004497C
:206880000020086001B0704710E000E014E000E018E000E002B49E21002805D401D102BC86
:2068A000704701394000FCD5803001D3013100E04000400AC905084302BC7047084880F365
:2068C000088800BF00BF00F001FD002801D0FFF7E7FD0020FEF75AFB012000F0E4FCC04688
:2068E0000080202080B584B0019101460198039102A90880039809225202801809880322CE
:206900005202FFF777FF04B080BD70B50122120383180C785D680C26B54334402C195C60E6
:20692000497883580724A34321405918815070BD30B514004C4325001C0044436419050008
