:020000040000FA
:10000000F80220206D010000710100007301000062
:1000100000000000000000000000000000000000E0
:10002000000000000000000000000000750100005A
:1000300000000000000000007701000079010000CE
:100040007B0100007B0100007B0100007B010000C0
:100050007B0100007B0100007B0100007B010000B0
:10006000000000007B0100007B0100000000000098
:10007000000000007B0100007B01000095030000F0
:100080007B0100007B0100007B0100007B01000080
:100090007B0100007B010000000000000000000068
:1000A0007B0100007B010000000000000000000058
:1000B0007B010000000000007B0100007B010000CC
:1000C00000F002F800F042F812A030C808382418F6
:1000D0002D18AC4201D100F039F80FCCA246AB4646
:1000E0000CA730CF2D1B083F3F197C427F1E544484
:1000F0002D090426F441641EAC4201D300F026F819
:100100000126334200D0FB1A3343984754465D46DC
:10011000DFE7000034040000440400000000000099
:100120007047000000000000002300240025002686
:10013000103A01D378C1FBD8520700D330C100D5A3
:100140000B6070471FB51FBD10B510BD00F027F83C
:100150001146FFF7F7FF00F089F900F03FF803B40C
:10016000FFF7F2FF03BC00F045F800000648004727
:10017000FEE7FEE7FEE7FEE7FEE7FEE70348044989
:10018000024A044B70470000C1000000F801202023
:10019000F8022020F801202070477047704775460C
:1001A00000F024F8AE46050069465346C008C0007A
:1001B000854618B020B5FFF7E1FF60BCB6460026C3
:1001C0000027C0C5C0C5C0C5C0C5C0C5C0C5C0C565
:1001D000C0C5403D490849008D46704710B50446EA
:1001E000C046C0462046FFF7BAFF10BD0048704722
:1001F0000000202001491820ABBEFEE726000200C7
:100200007047811E091F00BFFCD27047B0B5112294
:10021000120283580124A34383508B780C881C431B
:100220008B882343094C1C408358094D1D402B19D2
:1002300083508B79CC791C43097A21437E23194062
:10024000801842689A4351184160B0BD1867000099
:10025000E798FDFF10B50122120383180C789C600B
:100260004978815010BD000080B5074B18704620BA
:10027000587069209870D9701A716B2058710621D6
:10028000184600F00FF980BD60002020024882214E
:10029000016002494160704754804240820004007E
:1002A0000C48002101600320C1430B480246083A74
:1002B00013680B4013600168012291430160110231
:1002C00003688B4303601103001F02680A43026046
:1002D0007047C04608030B4008010B4010B5154C91
:1002E00015492046FFF7B6FF14492046FFF78EFF59
:1002F0000320C103124802688A4302600169114A5F
:100300000A40911C016141690B220A4334218A434E
:10031000426141680122114043689343591841608A
:100320009102094B1C680C431C6001681143016079
:1003300010BDC046008010403C0500003E05000096
:10034000009110400000FFFF2890104080B500F0A1
:1003500007F8FFF79BFFFFF7A3FFFFF7BFFF80BD85
:1003600080B5074807494160074A5160074B59600B
:1003700007490160116019601020FFF742FF80BD3E
:1003800000080A40030000B100280A40008810401D
:100390000100002610B5064C2068C0B20B2804D11D
:1003A00004480068C0B200F039F80B20A06210BD0C
:1003B0002090104024911040B0B581B000220092EE
:1003C0000B490C4B4B608A6005230B60012808DB4E
:1003D000094B8A6000938C68009DAC42FBD8401E9C
:1003E000F7DC086801229043086001B0B0BDC04648
:1003F00010E000E0FFFFFF000083FF00FF2102315B
:10040000194A505C4000105A535C5B1C53545356BD
:10041000002B00D470470023535470470121090278
:10042000114A535C5B00D052505C401C50545056F3
:10043000002800D4704700205054704710B5FF20AA
:10044000023009490B5C012212028C5CA34205D9DF
:10045000085C895C081A803080B210BD8A5C085C38
:10046000101A80B210BDC046F2002020FFF76EFFC8
:100470000124E00309490860094908607D208000E3
:10048000FFF79AFF002220462146FFF7EDFE0A20E3
:10049000FFF792FF00F030F8FEE7C04680E200E090
:1004A00000E100E070B582B06B4600221A701A704D
:1004B0001B788B421BD20F4B07E09C61009C641C95
:1004C0006D462C702C788C4211D26C462478045DD9
:1004D00001AD2A801D68ED07EFD0019D6D1C01AEB6
:1004E00035807D25AD013688AE42F3D9E6E702B00E
:1004F00070BDC0460891104070B582B001AD0026B5
:100500002E80FFF79BFF0B4C20702E8028882178CF
:1005100088420CD2084DFFF771FF01A90A88A85440
:100520000198401C0880088821788842F3D302B0E3
:1005300070BDC046F00020207000202004000000A4
:1005400018000000003000005805000000002020C6
:08055000F80200002801000080
:04000005000000C136
:00000001FF
